{
  "_format": "hh-sol-artifact-1",
  "contractName": "FileBridge",
  "sourceName": "contracts/bridge/FileBridge.sol",
  "abi": [
    {
      "inputs": [],
      "stateMutability": "nonpayable",
      "type": "constructor"
    },
    {
      "inputs": [],
      "name": "NOT_SUPPORTED_TOKEN",
      "type": "error"
    },
    {
      "inputs": [],
      "name": "OWNER_ADDRESS_ZERO",
      "type": "error"
    },
    {
      "inputs": [],
      "name": "TOKEN_DOESNT_EXIST",
      "type": "error"
    },
    {
      "inputs": [],
      "name": "TOKEN_EXIST",
      "type": "error"
    },
    {
      "inputs": [],
      "name": "WRONGE_SIG",
      "type": "error"
    },
    {
      "inputs": [],
      "name": "WRONG_CHAIN",
      "type": "error"
    },
    {
      "anonymous": false,
      "inputs": [
        {
          "indexed": true,
          "internalType": "address",
          "name": "to",
          "type": "address"
        },
        {
          "indexed": false,
          "internalType": "uint256",
          "name": "chainId",
          "type": "uint256"
        },
        {
          "indexed": false,
          "internalType": "contract IFToken",
          "name": "token",
          "type": "address"
        },
        {
          "indexed": false,
          "internalType": "uint256",
          "name": "amount",
          "type": "uint256"
        }
      ],
      "name": "FTokenDeposited",
      "type": "event"
    },
    {
      "anonymous": false,
      "inputs": [
        {
          "indexed": true,
          "internalType": "address",
          "name": "to",
          "type": "address"
        },
        {
          "indexed": false,
          "internalType": "uint256",
          "name": "chainId",
          "type": "uint256"
        },
        {
          "indexed": false,
          "internalType": "contract IFToken",
          "name": "token",
          "type": "address"
        },
        {
          "indexed": false,
          "internalType": "uint256",
          "name": "amount",
          "type": "uint256"
        }
      ],
      "name": "FTokenRedeemed",
      "type": "event"
    },
    {
      "anonymous": false,
      "inputs": [
        {
          "indexed": false,
          "internalType": "uint8",
          "name": "version",
          "type": "uint8"
        }
      ],
      "name": "Initialized",
      "type": "event"
    },
    {
      "anonymous": false,
      "inputs": [
        {
          "indexed": true,
          "internalType": "address",
          "name": "to",
          "type": "address"
        },
        {
          "indexed": false,
          "internalType": "uint256",
          "name": "chainId",
          "type": "uint256"
        },
        {
          "indexed": false,
          "internalType": "uint256",
          "name": "amount",
          "type": "uint256"
        }
      ],
      "name": "NativeTokenDeposited",
      "type": "event"
    },
    {
      "anonymous": false,
      "inputs": [
        {
          "indexed": true,
          "internalType": "address",
          "name": "to",
          "type": "address"
        },
        {
          "indexed": false,
          "internalType": "uint256",
          "name": "chainId",
          "type": "uint256"
        },
        {
          "indexed": false,
          "internalType": "uint256",
          "name": "amount",
          "type": "uint256"
        }
      ],
      "name": "NativeTokenRedeemed",
      "type": "event"
    },
    {
      "anonymous": false,
      "inputs": [
        {
          "indexed": false,
          "internalType": "address",
          "name": "account",
          "type": "address"
        }
      ],
      "name": "Paused",
      "type": "event"
    },
    {
      "anonymous": false,
      "inputs": [
        {
          "indexed": true,
          "internalType": "bytes32",
          "name": "role",
          "type": "bytes32"
        },
        {
          "indexed": true,
          "internalType": "bytes32",
          "name": "previousAdminRole",
          "type": "bytes32"
        },
        {
          "indexed": true,
          "internalType": "bytes32",
          "name": "newAdminRole",
          "type": "bytes32"
        }
      ],
      "name": "RoleAdminChanged",
      "type": "event"
    },
    {
      "anonymous": false,
      "inputs": [
        {
          "indexed": true,
          "internalType": "bytes32",
          "name": "role",
          "type": "bytes32"
        },
        {
          "indexed": true,
          "internalType": "address",
          "name": "account",
          "type": "address"
        },
        {
          "indexed": true,
          "internalType": "address",
          "name": "sender",
          "type": "address"
        }
      ],
      "name": "RoleGranted",
      "type": "event"
    },
    {
      "anonymous": false,
      "inputs": [
        {
          "indexed": true,
          "internalType": "bytes32",
          "name": "role",
          "type": "bytes32"
        },
        {
          "indexed": true,
          "internalType": "address",
          "name": "account",
          "type": "address"
        },
        {
          "indexed": true,
          "internalType": "address",
          "name": "sender",
          "type": "address"
        }
      ],
      "name": "RoleRevoked",
      "type": "event"
    },
    {
      "anonymous": false,
      "inputs": [
        {
          "indexed": false,
          "internalType": "address",
          "name": "_token",
          "type": "address"
        },
        {
          "indexed": false,
          "internalType": "address",
          "name": "_WToken",
          "type": "address"
        }
      ],
      "name": "TokenAddedToList",
      "type": "event"
    },
    {
      "anonymous": false,
      "inputs": [
        {
          "indexed": false,
          "internalType": "address",
          "name": "_token",
          "type": "address"
        },
        {
          "indexed": false,
          "internalType": "address",
          "name": "_WTokenOld",
          "type": "address"
        },
        {
          "indexed": false,
          "internalType": "address",
          "name": "_WTokenNew",
          "type": "address"
        }
      ],
      "name": "TokenChangedInList",
      "type": "event"
    },
    {
      "anonymous": false,
      "inputs": [
        {
          "indexed": true,
          "internalType": "address",
          "name": "to",
          "type": "address"
        },
        {
          "indexed": false,
          "internalType": "uint256",
          "name": "chainId",
          "type": "uint256"
        },
        {
          "indexed": false,
          "internalType": "contract IERC20",
          "name": "token",
          "type": "address"
        },
        {
          "indexed": false,
          "internalType": "uint256",
          "name": "amount",
          "type": "uint256"
        }
      ],
      "name": "TokenDeposited",
      "type": "event"
    },
    {
      "anonymous": false,
      "inputs": [
        {
          "indexed": true,
          "internalType": "address",
          "name": "to",
          "type": "address"
        },
        {
          "indexed": false,
          "internalType": "uint256",
          "name": "chainId",
          "type": "uint256"
        },
        {
          "indexed": false,
          "internalType": "contract IERC20",
          "name": "token",
          "type": "address"
        },
        {
          "indexed": false,
          "internalType": "uint256",
          "name": "amount",
          "type": "uint256"
        }
      ],
      "name": "TokenRedeemed",
      "type": "event"
    },
    {
      "anonymous": false,
      "inputs": [
        {
          "indexed": false,
          "internalType": "address",
          "name": "_token",
          "type": "address"
        }
      ],
      "name": "TokenRemovedFromList",
      "type": "event"
    },
    {
      "anonymous": false,
      "inputs": [
        {
          "indexed": false,
          "internalType": "address",
          "name": "account",
          "type": "address"
        }
      ],
      "name": "Unpaused",
      "type": "event"
    },
    {
      "anonymous": false,
      "inputs": [],
      "name": "guardianClosed",
      "type": "event"
    },
    {
      "anonymous": false,
      "inputs": [],
      "name": "guardianTerminated",
      "type": "event"
    },
    {
      "inputs": [],
      "name": "DEFAULT_ADMIN_ROLE",
      "outputs": [
        {
          "internalType": "bytes32",
          "name": "",
          "type": "bytes32"
        }
      ],
      "stateMutability": "view",
      "type": "function"
    },
    {
      "inputs": [],
      "name": "GOVERNANCE_ROLE",
      "outputs": [
        {
          "internalType": "bytes32",
          "name": "",
          "type": "bytes32"
        }
      ],
      "stateMutability": "view",
      "type": "function"
    },
    {
      "inputs": [],
      "name": "GUARDIAN_ROLE",
      "outputs": [
        {
          "internalType": "bytes32",
          "name": "",
          "type": "bytes32"
        }
      ],
      "stateMutability": "view",
      "type": "function"
    },
    {
      "inputs": [],
      "name": "WFIL_ADDRESS",
      "outputs": [
        {
          "internalType": "address payable",
          "name": "",
          "type": "address"
        }
      ],
      "stateMutability": "view",
      "type": "function"
    },
    {
      "inputs": [],
      "name": "acceptebleThreshold",
      "outputs": [
        {
          "internalType": "uint256",
          "name": "",
          "type": "uint256"
        }
      ],
      "stateMutability": "view",
      "type": "function"
    },
    {
      "inputs": [
        {
          "internalType": "address",
          "name": "_token",
          "type": "address"
        },
        {
          "internalType": "address",
          "name": "_fToken",
          "type": "address"
        }
      ],
      "name": "addWToken",
      "outputs": [],
      "stateMutability": "nonpayable",
      "type": "function"
    },
    {
      "inputs": [],
      "name": "bridgeVersion",
      "outputs": [
        {
          "internalType": "uint256",
          "name": "",
          "type": "uint256"
        }
      ],
      "stateMutability": "view",
      "type": "function"
    },
    {
      "inputs": [
        {
          "internalType": "address",
          "name": "_token",
          "type": "address"
        },
        {
          "internalType": "address",
          "name": "_fToken",
          "type": "address"
        }
      ],
      "name": "changeWToken",
      "outputs": [],
      "stateMutability": "nonpayable",
      "type": "function"
    },
    {
      "inputs": [],
      "name": "closeguardian",
      "outputs": [],
      "stateMutability": "nonpayable",
      "type": "function"
    },
    {
      "inputs": [
        {
          "internalType": "address",
          "name": "to",
          "type": "address"
        },
        {
          "internalType": "uint256",
          "name": "chainId",
          "type": "uint256"
        },
        {
          "internalType": "contract IFToken",
          "name": "fToken",
          "type": "address"
        },
        {
          "internalType": "uint256",
          "name": "amount",
          "type": "uint256"
        }
      ],
      "name": "depositFToken",
      "outputs": [],
      "stateMutability": "nonpayable",
      "type": "function"
    },
    {
      "inputs": [
        {
          "internalType": "address",
          "name": "to",
          "type": "address"
        },
        {
          "internalType": "uint256",
          "name": "chainId",
          "type": "uint256"
        },
        {
          "internalType": "contract IERC20",
          "name": "token",
          "type": "address"
        },
        {
          "internalType": "uint256",
          "name": "amount",
          "type": "uint256"
        }
      ],
      "name": "depositToken",
      "outputs": [],
      "stateMutability": "nonpayable",
      "type": "function"
    },
    {
      "inputs": [
        {
          "internalType": "address",
          "name": "tokenAddress",
          "type": "address"
        }
      ],
      "name": "getFeeBalance",
      "outputs": [
        {
          "internalType": "uint256",
          "name": "",
          "type": "uint256"
        }
      ],
      "stateMutability": "view",
      "type": "function"
    },
    {
      "inputs": [
        {
          "internalType": "bytes32",
          "name": "role",
          "type": "bytes32"
        }
      ],
      "name": "getRoleAdmin",
      "outputs": [
        {
          "internalType": "bytes32",
          "name": "",
          "type": "bytes32"
        }
      ],
      "stateMutability": "view",
      "type": "function"
    },
    {
      "inputs": [
        {
          "internalType": "bytes32",
          "name": "role",
          "type": "bytes32"
        },
        {
          "internalType": "address",
          "name": "account",
          "type": "address"
        }
      ],
      "name": "grantRole",
      "outputs": [],
      "stateMutability": "nonpayable",
      "type": "function"
    },
    {
      "inputs": [
        {
          "internalType": "bytes32",
          "name": "role",
          "type": "bytes32"
        },
        {
          "internalType": "address",
          "name": "account",
          "type": "address"
        }
      ],
      "name": "hasRole",
      "outputs": [
        {
          "internalType": "bool",
          "name": "",
          "type": "bool"
        }
      ],
      "stateMutability": "view",
      "type": "function"
    },
    {
      "inputs": [
        {
          "internalType": "address",
          "name": "_owner",
          "type": "address"
        },
        {
          "internalType": "address[]",
          "name": "_members",
          "type": "address[]"
        },
        {
          "internalType": "uint256",
          "name": "_honestThreshold",
          "type": "uint256"
        }
      ],
      "name": "initialize",
      "outputs": [],
      "stateMutability": "nonpayable",
      "type": "function"
    },
    {
      "inputs": [],
      "name": "isActive",
      "outputs": [
        {
          "internalType": "bool",
          "name": "",
          "type": "bool"
        }
      ],
      "stateMutability": "view",
      "type": "function"
    },
    {
      "inputs": [],
      "name": "isClosed",
      "outputs": [
        {
          "internalType": "bool",
          "name": "",
          "type": "bool"
        }
      ],
      "stateMutability": "view",
      "type": "function"
    },
    {
      "inputs": [],
      "name": "isTerminated",
      "outputs": [
        {
          "internalType": "bool",
          "name": "",
          "type": "bool"
        }
      ],
      "stateMutability": "view",
      "type": "function"
    },
    {
      "inputs": [
        {
          "internalType": "address",
          "name": "owner",
          "type": "address"
        }
      ],
      "name": "nonces",
      "outputs": [
        {
          "internalType": "uint256",
          "name": "",
          "type": "uint256"
        }
      ],
      "stateMutability": "view",
      "type": "function"
    },
    {
      "inputs": [],
      "name": "pause",
      "outputs": [],
      "stateMutability": "nonpayable",
      "type": "function"
    },
    {
      "inputs": [],
      "name": "paused",
      "outputs": [
        {
          "internalType": "bool",
          "name": "",
          "type": "bool"
        }
      ],
      "stateMutability": "view",
      "type": "function"
    },
    {
      "inputs": [
        {
          "internalType": "address",
          "name": "to",
          "type": "address"
        },
        {
          "internalType": "uint256",
          "name": "chainId",
          "type": "uint256"
        },
        {
          "internalType": "contract IFToken",
          "name": "fToken",
          "type": "address"
        },
        {
          "internalType": "uint256",
          "name": "amount",
          "type": "uint256"
        },
        {
          "internalType": "address",
          "name": "_signer",
          "type": "address"
        },
        {
          "internalType": "bytes32",
          "name": "r",
          "type": "bytes32"
        },
        {
          "internalType": "bytes32",
          "name": "vs",
          "type": "bytes32"
        }
      ],
      "name": "redeemFToken",
      "outputs": [],
      "stateMutability": "nonpayable",
      "type": "function"
    },
    {
      "inputs": [
        {
          "internalType": "address",
          "name": "to",
          "type": "address"
        },
        {
          "internalType": "uint256",
          "name": "chainId",
          "type": "uint256"
        },
        {
          "internalType": "contract IERC20",
          "name": "fToken",
          "type": "address"
        },
        {
          "internalType": "uint256",
          "name": "amount",
          "type": "uint256"
        },
        {
          "internalType": "uint256",
          "name": "nonce",
          "type": "uint256"
        }
      ],
      "name": "redeemFTokenHashGenerator",
      "outputs": [
        {
          "internalType": "bytes32",
          "name": "hash",
          "type": "bytes32"
        }
      ],
      "stateMutability": "view",
      "type": "function"
    },
    {
      "inputs": [
        {
          "internalType": "address",
          "name": "to",
          "type": "address"
        },
        {
          "internalType": "uint256",
          "name": "chainId",
          "type": "uint256"
        },
        {
          "internalType": "uint256",
          "name": "amount",
          "type": "uint256"
        },
        {
          "internalType": "uint256",
          "name": "nonce",
          "type": "uint256"
        }
      ],
      "name": "redeemNativeTokenHashGenerator",
      "outputs": [
        {
          "internalType": "bytes32",
          "name": "hash",
          "type": "bytes32"
        }
      ],
      "stateMutability": "view",
      "type": "function"
    },
    {
      "inputs": [
        {
          "internalType": "address",
          "name": "to",
          "type": "address"
        },
        {
          "internalType": "uint256",
          "name": "chainId",
          "type": "uint256"
        },
        {
          "internalType": "contract IERC20",
          "name": "token",
          "type": "address"
        },
        {
          "internalType": "uint256",
          "name": "amount",
          "type": "uint256"
        },
        {
          "internalType": "address",
          "name": "_signer",
          "type": "address"
        },
        {
          "internalType": "bytes32",
          "name": "r",
          "type": "bytes32"
        },
        {
          "internalType": "bytes32",
          "name": "vs",
          "type": "bytes32"
        }
      ],
      "name": "redeemToken",
      "outputs": [],
      "stateMutability": "nonpayable",
      "type": "function"
    },
    {
      "inputs": [
        {
          "internalType": "address",
          "name": "to",
          "type": "address"
        },
        {
          "internalType": "uint256",
          "name": "chainId",
          "type": "uint256"
        },
        {
          "internalType": "contract IERC20",
          "name": "token",
          "type": "address"
        },
        {
          "internalType": "uint256",
          "name": "amount",
          "type": "uint256"
        },
        {
          "internalType": "uint256",
          "name": "nonce",
          "type": "uint256"
        }
      ],
      "name": "redeemTokenHashGenerator",
      "outputs": [
        {
          "internalType": "bytes32",
          "name": "hash",
          "type": "bytes32"
        }
      ],
      "stateMutability": "view",
      "type": "function"
    },
    {
      "inputs": [
        {
          "internalType": "address",
          "name": "_token",
          "type": "address"
        }
      ],
      "name": "removeWToken",
      "outputs": [],
      "stateMutability": "nonpayable",
      "type": "function"
    },
    {
      "inputs": [
        {
          "internalType": "bytes32",
          "name": "role",
          "type": "bytes32"
        },
        {
          "internalType": "address",
          "name": "account",
          "type": "address"
        }
      ],
      "name": "renounceRole",
      "outputs": [],
      "stateMutability": "nonpayable",
      "type": "function"
    },
    {
      "inputs": [
        {
          "internalType": "bytes32",
          "name": "role",
          "type": "bytes32"
        },
        {
          "internalType": "address",
          "name": "account",
          "type": "address"
        }
      ],
      "name": "revokeRole",
      "outputs": [],
      "stateMutability": "nonpayable",
      "type": "function"
    },
    {
      "inputs": [
        {
          "internalType": "address payable",
          "name": "_wethAddress",
          "type": "address"
        }
      ],
      "name": "setWethAddress",
      "outputs": [],
      "stateMutability": "nonpayable",
      "type": "function"
    },
    {
      "inputs": [],
      "name": "startBlockNumber",
      "outputs": [
        {
          "internalType": "uint256",
          "name": "",
          "type": "uint256"
        }
      ],
      "stateMutability": "view",
      "type": "function"
    },
    {
      "inputs": [
        {
          "internalType": "bytes4",
          "name": "interfaceId",
          "type": "bytes4"
        }
      ],
      "name": "supportsInterface",
      "outputs": [
        {
          "internalType": "bool",
          "name": "",
          "type": "bool"
        }
      ],
      "stateMutability": "view",
      "type": "function"
    },
    {
      "inputs": [
        {
          "internalType": "address",
          "name": "",
          "type": "address"
        }
      ],
      "name": "tokenToWTokenMap",
      "outputs": [
        {
          "internalType": "address",
          "name": "",
          "type": "address"
        }
      ],
      "stateMutability": "view",
      "type": "function"
    },
    {
      "inputs": [],
      "name": "unpause",
      "outputs": [],
      "stateMutability": "nonpayable",
      "type": "function"
    },
    {
      "inputs": [
        {
          "internalType": "contract IERC20",
          "name": "token",
          "type": "address"
        },
        {
          "internalType": "address",
          "name": "to",
          "type": "address"
        }
      ],
      "name": "withdrawFees",
      "outputs": [],
      "stateMutability": "nonpayable",
      "type": "function"
    },
    {
      "stateMutability": "payable",
      "type": "receive"
    }
  ],
  "bytecode": "0x61014060405234801561001157600080fd5b50604080518082018252600a81526946696c6542726964676560b01b6020808301918252835180850190945260018452603160f81b908401528151902060e08190527fc89efdaa54c0f20c7adf612882df0950f5a951637e0307cdcb4c672f298b8bc66101008190524660a0529192917f8b73c3c69bb8fe3d512ecc4cf759cc79239f7b179b0ffacaa9a75d522b39400f6100f18184846040805160208101859052908101839052606081018290524660808201523060a082015260009060c0016040516020818303038152906040528051906020012090509392505050565b6080523060c052610120525061010692505050565b60805160a05160c05160e05161010051610120516135f8620001566000396000612660015260006126af0152600061268a015260006125e30152600061260d0152600061263701526135f86000f3fe6080604052600436106102535760003560e01c8063935737cd11610138578063c9422fe3116100b0578063d547741f1161007f578063ebe9233c11610064578063ebe9233c14610701578063f255527814610721578063f36c8f5c1461074157600080fd5b8063d547741f146106c1578063e32c1ef7146106e157600080fd5b8063c9422fe31461063e578063d1cc99761461066c578063d2a876d214610681578063d4ba26f8146106a157600080fd5b8063a96e242311610107578063c037e7de116100ec578063c037e7de146105c6578063c2b6b58c146105e6578063c78f6803146105fb57600080fd5b8063a96e242314610591578063ac865626146105b157600080fd5b8063935737cd1461051c57806394669dc41461053c57806397a861381461055c578063a217fddf1461057c57600080fd5b806336568abe116101cb5780635c975abb1161019a5780637ecebe001161017f5780637ecebe00146104945780638456cb59146104b457806391d14854146104c957600080fd5b80635c975abb1461045c5780636701ccb51461047457600080fd5b806336568abe146103f05780633ede50c6146104105780633f4ba83a14610430578063498a4c2d1461044557600080fd5b8063248a9ca3116102225780632609b4a8116102075780632609b4a81461039a578063299bb715146103ba5780632f2ff15d146103d057600080fd5b8063248a9ca31461032857806324ea54f41461036657600080fd5b806301ffc9a71461025f57806307c62ee2146102945780630adc703f146102ab57806322f3e2d41461031357600080fd5b3661025a57005b600080fd5b34801561026b57600080fd5b5061027f61027a366004612fd2565b610775565b60405190151581526020015b60405180910390f35b3480156102a057600080fd5b506102a961080e565b005b3480156102b757600080fd5b506102ee6102c6366004613046565b60fe6020526000908152604090205473ffffffffffffffffffffffffffffffffffffffff1681565b60405173ffffffffffffffffffffffffffffffffffffffff909116815260200161028b565b34801561031f57600080fd5b5061027f6108b6565b34801561033457600080fd5b50610358610343366004613063565b600090815260c9602052604090206001015490565b60405190815260200161028b565b34801561037257600080fd5b506103587f55435dd261a4b9b3364963f7738a7a662ad9c84396d64be3365284bb7f0a504181565b3480156103a657600080fd5b506102a96103b536600461307c565b6108d7565b3480156103c657600080fd5b5061035860fb5481565b3480156103dc57600080fd5b506102a96103eb3660046130ed565b610afd565b3480156103fc57600080fd5b506102a961040b3660046130ed565b610b27565b34801561041c57600080fd5b506102a961042b36600461314c565b610bda565b34801561043c57600080fd5b506102a9610ed3565b34801561045157600080fd5b506103586101005481565b34801561046857600080fd5b5060655460ff1661027f565b34801561048057600080fd5b506102a961048f36600461324c565b610f05565b3480156104a057600080fd5b506103586104af366004613046565b611195565b3480156104c057600080fd5b506102a96111c0565b3480156104d557600080fd5b5061027f6104e43660046130ed565b600091825260c96020908152604080842073ffffffffffffffffffffffffffffffffffffffff93909316845291905290205460ff1690565b34801561052857600080fd5b50610358610537366004613294565b6111f2565b34801561054857600080fd5b50610358610557366004613294565b61128d565b34801561056857600080fd5b506102a961057736600461324c565b611300565b34801561058857600080fd5b50610358600081565b34801561059d57600080fd5b506102a96105ac366004613046565b6113fa565b3480156105bd57600080fd5b50610358600181565b3480156105d257600080fd5b506102a96105e1366004613046565b61146d565b3480156105f257600080fd5b5061027f611578565b34801561060757600080fd5b50610358610616366004613046565b73ffffffffffffffffffffffffffffffffffffffff16600090815260fd602052604090205490565b34801561064a57600080fd5b50610101546102ee9073ffffffffffffffffffffffffffffffffffffffff1681565b34801561067857600080fd5b5061027f611581565b34801561068d57600080fd5b506102a961069c36600461307c565b61158a565b3480156106ad57600080fd5b506102a96106bc3660046132e6565b61179a565b3480156106cd57600080fd5b506102a96106dc3660046130ed565b6118df565b3480156106ed57600080fd5b506102a96106fc3660046132e6565b611904565b34801561070d57600080fd5b5061035861071c366004613314565b611a1e565b34801561072d57600080fd5b506102a961073c3660046132e6565b611aae565b34801561074d57600080fd5b506103587f71840dc4906352362b0cdaf79870196c8e42acafade72d5d5a6d59291253ceb181565b60007fffffffff0000000000000000000000000000000000000000000000000000000082167f7965db0b00000000000000000000000000000000000000000000000000000000148061080857507f01ffc9a7000000000000000000000000000000000000000000000000000000007fffffffff000000000000000000000000000000000000000000000000000000008316145b92915050565b7f71840dc4906352362b0cdaf79870196c8e42acafade72d5d5a6d59291253ceb161083881611be3565b6108406108b6565b6108ab576040517f08c379a000000000000000000000000000000000000000000000000000000000815260206004820152601660248201527f677561726469616e206973206e6f74206163746976650000000000000000000060448201526064015b60405180910390fd5b6108b3611bed565b50565b6000805b60fc5460ff1660028111156108d1576108d161334f565b14905090565b6108df611c42565b6108e7611cb6565b46868114610921576040517f46ba812900000000000000000000000000000000000000000000000000000000815260040160405180910390fd5b60007f0257b5515675be471b2103a273ec0031c5d69d132c40f1b555f05c20decfcea08989898961097c8a73ffffffffffffffffffffffffffffffffffffffff16600090815260ff6020526040902080546001810190915590565b60408051602081019790975273ffffffffffffffffffffffffffffffffffffffff9586169087015260608601939093529216608084015260a083019190915260c082015260e00160405160208183030381529060405280519060200120905060006109e682611d25565b905060006109f5828787611d8e565b73ffffffffffffffffffffffffffffffffffffffff811660009081527f42433f30842f027234f95eef6ba52ea4eb9f1310dcea3f4c81958054d311825b602052604090205490915060ff16610a76576040517f0653c41500000000000000000000000000000000000000000000000000000000815260040160405180910390fd5b8673ffffffffffffffffffffffffffffffffffffffff168173ffffffffffffffffffffffffffffffffffffffff1614610adb576040517f0653c41500000000000000000000000000000000000000000000000000000000815260040160405180910390fd5b610ae78b8b8b8b611db4565b50505050610af460018055565b50505050505050565b600082815260c96020526040902060010154610b1881611be3565b610b228383611fcc565b505050565b73ffffffffffffffffffffffffffffffffffffffff81163314610bcc576040517f08c379a000000000000000000000000000000000000000000000000000000000815260206004820152602f60248201527f416363657373436f6e74726f6c3a2063616e206f6e6c792072656e6f756e636560448201527f20726f6c657320666f722073656c66000000000000000000000000000000000060648201526084016108a2565b610bd682826120c0565b5050565b600054610100900460ff1615808015610bfa5750600054600160ff909116105b80610c145750303b158015610c14575060005460ff166001145b610ca0576040517f08c379a000000000000000000000000000000000000000000000000000000000815260206004820152602e60248201527f496e697469616c697a61626c653a20636f6e747261637420697320616c72656160448201527f647920696e697469616c697a656400000000000000000000000000000000000060648201526084016108a2565b600080547fffffffffffffffffffffffffffffffffffffffffffffffffffffffffffffff001660011790558015610cfe57600080547fffffffffffffffffffffffffffffffffffffffffffffffffffffffffffff00ff166101001790555b4361010055610d0e60008561217b565b610d387f71840dc4906352362b0cdaf79870196c8e42acafade72d5d5a6d59291253ceb18561217b565b610d40612185565b73ffffffffffffffffffffffffffffffffffffffff8416610d8d576040517ff7acd5b600000000000000000000000000000000000000000000000000000000815260040160405180910390fd5b60005b83518160ff161015610df457610de27f55435dd261a4b9b3364963f7738a7a662ad9c84396d64be3365284bb7f0a5041858360ff1681518110610dd557610dd561337e565b602002602001015161217b565b80610dec816133dc565b915050610d90565b5060fb829055610e02612185565b60fc80547fffffffffffffffffffffffffffffffffffffffffffffffffffffffffffffff0016905561010180547fffffffffffffffffffffff00ffffffffffffffffffffffffffffffffffffffff16740100000000000000000000000000000000000000001790558015610ecd57600080547fffffffffffffffffffffffffffffffffffffffffffffffffffffffffffff00ff169055604051600181527f7f26b83ff96e1f2b6a682f133852f6798a09c465da95921460cefb38474024989060200160405180910390a15b50505050565b7f71840dc4906352362b0cdaf79870196c8e42acafade72d5d5a6d59291253ceb1610efd81611be3565b6108b361221c565b610f0d611c42565b610f15611cb6565b73ffffffffffffffffffffffffffffffffffffffff808316600090815260fe60205260409020541680610f74576040517f7d96f86200000000000000000000000000000000000000000000000000000000815260040160405180910390fd5b6040805185815273ffffffffffffffffffffffffffffffffffffffff8581166020830152918101849052908616907fde46609fac561bc42e82d3807108fa2f23cbba2092b986150752441d25d6970d9060600160405180910390a2610ff173ffffffffffffffffffffffffffffffffffffffff8416333085612299565b6040517f095ea7b300000000000000000000000000000000000000000000000000000000815273ffffffffffffffffffffffffffffffffffffffff82811660048301526024820184905284169063095ea7b3906044016020604051808303816000875af1158015611066573d6000803e3d6000fd5b505050506040513d601f19601f8201168201806040525081019061108a91906133fc565b506040517fb6b55f250000000000000000000000000000000000000000000000000000000081526004810183905273ffffffffffffffffffffffffffffffffffffffff82169063b6b55f2590602401600060405180830381600087803b1580156110f357600080fd5b505af1158015611107573d6000803e3d6000fd5b50506040517f42966c680000000000000000000000000000000000000000000000000000000081526004810185905273ffffffffffffffffffffffffffffffffffffffff841692506342966c689150602401600060405180830381600087803b15801561117357600080fd5b505af1158015611187573d6000803e3d6000fd5b5050505050610ecd60018055565b73ffffffffffffffffffffffffffffffffffffffff8116600090815260ff6020526040812054610808565b7f71840dc4906352362b0cdaf79870196c8e42acafade72d5d5a6d59291253ceb16111ea81611be3565b6108b3612375565b604080517f7dfa05d451d30dd62973a64c7104df068298e24943e64dc3c3bc8e78e63c4172602082015273ffffffffffffffffffffffffffffffffffffffff8088169282019290925260608101869052908416608082015260a0810183905260c08101829052600090819060e0015b60405160208183030381529060405280519060200120905061128281611d25565b979650505050505050565b604080517f0257b5515675be471b2103a273ec0031c5d69d132c40f1b555f05c20decfcea0602082015273ffffffffffffffffffffffffffffffffffffffff8088169282019290925260608101869052908416608082015260a0810183905260c08101829052600090819060e001611261565b611308611c42565b611310611cb6565b6040805184815273ffffffffffffffffffffffffffffffffffffffff8481166020830152918101839052908516907f29613a3cca480d9491430c9a0f1fe35deced7ea41b87806630b1275812ade8ab9060600160405180910390a26040517f79cc67900000000000000000000000000000000000000000000000000000000081523360048201526024810182905273ffffffffffffffffffffffffffffffffffffffff8316906379cc679090604401600060405180830381600087803b1580156113d957600080fd5b505af11580156113ed573d6000803e3d6000fd5b50505050610ecd60018055565b7f71840dc4906352362b0cdaf79870196c8e42acafade72d5d5a6d59291253ceb161142481611be3565b5061010180547fffffffffffffffffffffffff00000000000000000000000000000000000000001673ffffffffffffffffffffffffffffffffffffffff92909216919091179055565b7f71840dc4906352362b0cdaf79870196c8e42acafade72d5d5a6d59291253ceb161149781611be3565b73ffffffffffffffffffffffffffffffffffffffff828116600090815260fe6020526040902054166114f5576040517f7c3c605400000000000000000000000000000000000000000000000000000000815260040160405180910390fd5b73ffffffffffffffffffffffffffffffffffffffff8216600081815260fe602090815260409182902080547fffffffffffffffffffffffff000000000000000000000000000000000000000016905590519182527fd1430f7c8d782550f18b6c7da273333e083a2b7095d212a2f6c82c33a5d4b052910160405180910390a15050565b600060016108ba565b600060026108ba565b611592611c42565b61159a611cb6565b468681146115d4576040517f46ba812900000000000000000000000000000000000000000000000000000000815260040160405180910390fd5b60007f7dfa05d451d30dd62973a64c7104df068298e24943e64dc3c3bc8e78e63c41728989898961162f8a73ffffffffffffffffffffffffffffffffffffffff16600090815260ff6020526040902080546001810190915590565b60408051602081019790975273ffffffffffffffffffffffffffffffffffffffff9586169087015260608601939093529216608084015260a083019190915260c082015260e001604051602081830303815290604052805190602001209050600061169982611d25565b905060006116a8828787611d8e565b73ffffffffffffffffffffffffffffffffffffffff811660009081527f42433f30842f027234f95eef6ba52ea4eb9f1310dcea3f4c81958054d311825b602052604090205490915060ff16611729576040517f0653c41500000000000000000000000000000000000000000000000000000000815260040160405180910390fd5b8673ffffffffffffffffffffffffffffffffffffffff168173ffffffffffffffffffffffffffffffffffffffff161461178e576040517f0653c41500000000000000000000000000000000000000000000000000000000815260040160405180910390fd5b610ae78b8b8b8b6123d0565b7f71840dc4906352362b0cdaf79870196c8e42acafade72d5d5a6d59291253ceb16117c481611be3565b73ffffffffffffffffffffffffffffffffffffffff838116600090815260fe602052604090205416611822576040517f7c3c605400000000000000000000000000000000000000000000000000000000815260040160405180910390fd5b73ffffffffffffffffffffffffffffffffffffffff838116600081815260fe60209081526040918290205482519384528416908301529184168183015290517f4fe4c8a08efff712b39cdd1a4c2f7c9ef65db180f9987bbe77785fe3d93943729181900360600190a15073ffffffffffffffffffffffffffffffffffffffff918216600090815260fe6020526040902080547fffffffffffffffffffffffff00000000000000000000000000000000000000001691909216179055565b600082815260c960205260409020600101546118fa81611be3565b610b2283836120c0565b7f71840dc4906352362b0cdaf79870196c8e42acafade72d5d5a6d59291253ceb161192e81611be3565b73ffffffffffffffffffffffffffffffffffffffff838116600090815260fe6020526040902054161561198d576040517fa18c194a00000000000000000000000000000000000000000000000000000000815260040160405180910390fd5b73ffffffffffffffffffffffffffffffffffffffff838116600081815260fe602090815260409182902080547fffffffffffffffffffffffff000000000000000000000000000000000000000016948716948517905581519283528201929092527f8194f8ec86427d430181ba7edda1ba0f0c2aec07a5d94ccbe1322bc03eaa43e5910160405180910390a1505050565b604080517f8bcb0d3c80569d6069caf887efc59d94f8ca64d00bf62166fa1f8e1430c20c3f602082015273ffffffffffffffffffffffffffffffffffffffff861691810191909152606081018490526080810183905260a08101829052600090819060c001604051602081830303815290604052805190602001209050611aa481611d25565b9695505050505050565b611ab6611cb6565b7f71840dc4906352362b0cdaf79870196c8e42acafade72d5d5a6d59291253ceb1611ae081611be3565b73ffffffffffffffffffffffffffffffffffffffff8216611b5d576040517f08c379a000000000000000000000000000000000000000000000000000000000815260206004820152601060248201527f416464726573732069732030783030300000000000000000000000000000000060448201526064016108a2565b73ffffffffffffffffffffffffffffffffffffffff8316600090815260fd602052604090205415610b225773ffffffffffffffffffffffffffffffffffffffff8316600081815260fd6020526040902054611bba919084906124b9565b505073ffffffffffffffffffffffffffffffffffffffff16600090815260fd6020526040812055565b6108b3813361250f565b60fc80547fffffffffffffffffffffffffffffffffffffffffffffffffffffffffffffff001660011790556040517e1aa2f31bfd8a202cf1404bdcbb5ee7edce92af589f2b2926bae82fb281a26690600090a1565b60026001541415611caf576040517f08c379a000000000000000000000000000000000000000000000000000000000815260206004820152601f60248201527f5265656e7472616e637947756172643a207265656e7472616e742063616c6c0060448201526064016108a2565b6002600155565b60655460ff1615611d23576040517f08c379a000000000000000000000000000000000000000000000000000000000815260206004820152601060248201527f5061757361626c653a207061757365640000000000000000000000000000000060448201526064016108a2565b565b6000610808611d326125c9565b836040517f19010000000000000000000000000000000000000000000000000000000000006020820152602281018390526042810182905260009060620160405160208183030381529060405280519060200120905092915050565b6000806000611d9e8686866126fd565b91509150611dab8161274f565b50949350505050565b73ffffffffffffffffffffffffffffffffffffffff828116600081815260fe602090815260409182902054825188815291820193909352908101849052908216918616907fb0ac189509294d914305df704f0472f3b423d22fbd4f97a9f58c3e6a3a4c804b9060600160405180910390a26040517f40c10f190000000000000000000000000000000000000000000000000000000081523060048201526024810183905273ffffffffffffffffffffffffffffffffffffffff8216906340c10f1990604401600060405180830381600087803b158015611e9357600080fd5b505af1158015611ea7573d6000803e3d6000fd5b50506040517f2e1a7d4d0000000000000000000000000000000000000000000000000000000081526004810185905273ffffffffffffffffffffffffffffffffffffffff84169250632e1a7d4d9150602401600060405180830381600087803b158015611f1357600080fd5b505af1158015611f27573d6000803e3d6000fd5b50506040517fa9059cbb00000000000000000000000000000000000000000000000000000000815273ffffffffffffffffffffffffffffffffffffffff8881166004830152602482018690528616925063a9059cbb91506044016020604051808303816000875af1158015611fa0573d6000803e3d6000fd5b505050506040513d601f19601f82011682018060405250810190611fc491906133fc565b505050505050565b600082815260c96020908152604080832073ffffffffffffffffffffffffffffffffffffffff8516845290915290205460ff16610bd657600082815260c96020908152604080832073ffffffffffffffffffffffffffffffffffffffff85168452909152902080547fffffffffffffffffffffffffffffffffffffffffffffffffffffffffffffff001660011790556120623390565b73ffffffffffffffffffffffffffffffffffffffff168173ffffffffffffffffffffffffffffffffffffffff16837f2f8788117e7eff1d82e926ec794901d17c78024a50270940304540a733656f0d60405160405180910390a45050565b600082815260c96020908152604080832073ffffffffffffffffffffffffffffffffffffffff8516845290915290205460ff1615610bd657600082815260c96020908152604080832073ffffffffffffffffffffffffffffffffffffffff8516808552925280832080547fffffffffffffffffffffffffffffffffffffffffffffffffffffffffffffff0016905551339285917ff6391f5c32d9c69d2a47ea670b442974b53935d1edc7fd64eb21e047a839171b9190a45050565b610bd68282611fcc565b600054610100900460ff16611d23576040517f08c379a000000000000000000000000000000000000000000000000000000000815260206004820152602b60248201527f496e697469616c697a61626c653a20636f6e7472616374206973206e6f74206960448201527f6e697469616c697a696e6700000000000000000000000000000000000000000060648201526084016108a2565b612224612906565b606580547fffffffffffffffffffffffffffffffffffffffffffffffffffffffffffffff001690557f5db9ee0a495bf2e6ff9c91a7834c1ba4fdd244a5e8aa4e537bd38aeae4b073aa335b60405173ffffffffffffffffffffffffffffffffffffffff909116815260200160405180910390a1565b60405173ffffffffffffffffffffffffffffffffffffffff80851660248301528316604482015260648101829052610ecd9085907f23b872dd00000000000000000000000000000000000000000000000000000000906084015b604080517fffffffffffffffffffffffffffffffffffffffffffffffffffffffffffffffe08184030181529190526020810180517bffffffffffffffffffffffffffffffffffffffffffffffffffffffff167fffffffff0000000000000000000000000000000000000000000000000000000090931692909217909152612972565b61237d611cb6565b606580547fffffffffffffffffffffffffffffffffffffffffffffffffffffffffffffff001660011790557f62e78cea01bee320cd4e420270b5ea74000d11b0c9f74754ebdbfc544b05a25861226f3390565b6040805184815273ffffffffffffffffffffffffffffffffffffffff8481166020830152918101839052908516907fd846329edee61b3d2dca95b0bcf7834b7b82437d9bd5ebda9209c82dd3062b759060600160405180910390a26040517f40c10f1900000000000000000000000000000000000000000000000000000000815273ffffffffffffffffffffffffffffffffffffffff8581166004830152602482018390528316906340c10f1990604401600060405180830381600087803b15801561249b57600080fd5b505af11580156124af573d6000803e3d6000fd5b5050505050505050565b60405173ffffffffffffffffffffffffffffffffffffffff8316602482015260448101829052610b229084907fa9059cbb00000000000000000000000000000000000000000000000000000000906064016122f3565b600082815260c96020908152604080832073ffffffffffffffffffffffffffffffffffffffff8516845290915290205460ff16610bd65761254f81612a7e565b61255a836020612a9d565b60405160200161256b92919061344a565b604080517fffffffffffffffffffffffffffffffffffffffffffffffffffffffffffffffe0818403018152908290527f08c379a00000000000000000000000000000000000000000000000000000000082526108a2916004016134cb565b60003073ffffffffffffffffffffffffffffffffffffffff7f00000000000000000000000000000000000000000000000000000000000000001614801561262f57507f000000000000000000000000000000000000000000000000000000000000000046145b1561265957507f000000000000000000000000000000000000000000000000000000000000000090565b50604080517f00000000000000000000000000000000000000000000000000000000000000006020808301919091527f0000000000000000000000000000000000000000000000000000000000000000828401527f000000000000000000000000000000000000000000000000000000000000000060608301524660808301523060a0808401919091528351808403909101815260c0909201909252805191012090565b6000807f7fffffffffffffffffffffffffffffffffffffffffffffffffffffffffffffff83168161273360ff86901c601b61351c565b905061274187828885612ce7565b935093505050935093915050565b60008160048111156127635761276361334f565b141561276c5750565b60018160048111156127805761278061334f565b14156127e8576040517f08c379a000000000000000000000000000000000000000000000000000000000815260206004820152601860248201527f45434453413a20696e76616c6964207369676e6174757265000000000000000060448201526064016108a2565b60028160048111156127fc576127fc61334f565b1415612864576040517f08c379a000000000000000000000000000000000000000000000000000000000815260206004820152601f60248201527f45434453413a20696e76616c6964207369676e6174757265206c656e6774680060448201526064016108a2565b60038160048111156128785761287861334f565b14156108b3576040517f08c379a000000000000000000000000000000000000000000000000000000000815260206004820152602260248201527f45434453413a20696e76616c6964207369676e6174757265202773272076616c60448201527f756500000000000000000000000000000000000000000000000000000000000060648201526084016108a2565b60655460ff16611d23576040517f08c379a000000000000000000000000000000000000000000000000000000000815260206004820152601460248201527f5061757361626c653a206e6f742070617573656400000000000000000000000060448201526064016108a2565b60006129d4826040518060400160405280602081526020017f5361666545524332303a206c6f772d6c6576656c2063616c6c206661696c65648152508573ffffffffffffffffffffffffffffffffffffffff16612dd69092919063ffffffff16565b805190915015610b2257808060200190518101906129f291906133fc565b610b22576040517f08c379a000000000000000000000000000000000000000000000000000000000815260206004820152602a60248201527f5361666545524332303a204552433230206f7065726174696f6e20646964206e60448201527f6f7420737563636565640000000000000000000000000000000000000000000060648201526084016108a2565b606061080873ffffffffffffffffffffffffffffffffffffffff831660145b60606000612aac836002613534565b612ab790600261351c565b67ffffffffffffffff811115612acf57612acf61311d565b6040519080825280601f01601f191660200182016040528015612af9576020820181803683370190505b5090507f300000000000000000000000000000000000000000000000000000000000000081600081518110612b3057612b3061337e565b60200101907effffffffffffffffffffffffffffffffffffffffffffffffffffffffffffff1916908160001a9053507f780000000000000000000000000000000000000000000000000000000000000081600181518110612b9357612b9361337e565b60200101907effffffffffffffffffffffffffffffffffffffffffffffffffffffffffffff1916908160001a9053506000612bcf846002613534565b612bda90600161351c565b90505b6001811115612c77577f303132333435363738396162636465660000000000000000000000000000000085600f1660108110612c1b57612c1b61337e565b1a60f81b828281518110612c3157612c3161337e565b60200101907effffffffffffffffffffffffffffffffffffffffffffffffffffffffffffff1916908160001a90535060049490941c93612c7081613571565b9050612bdd565b508315612ce0576040517f08c379a000000000000000000000000000000000000000000000000000000000815260206004820181905260248201527f537472696e67733a20686578206c656e67746820696e73756666696369656e7460448201526064016108a2565b9392505050565b6000807f7fffffffffffffffffffffffffffffff5d576e7357a4501ddfe92f46681b20a0831115612d1e5750600090506003612dcd565b6040805160008082526020820180845289905260ff881692820192909252606081018690526080810185905260019060a0016020604051602081039080840390855afa158015612d72573d6000803e3d6000fd5b50506040517fffffffffffffffffffffffffffffffffffffffffffffffffffffffffffffffe0015191505073ffffffffffffffffffffffffffffffffffffffff8116612dc657600060019250925050612dcd565b9150600090505b94509492505050565b6060612de58484600085612ded565b949350505050565b606082471015612e7f576040517f08c379a000000000000000000000000000000000000000000000000000000000815260206004820152602660248201527f416464726573733a20696e73756666696369656e742062616c616e636520666f60448201527f722063616c6c000000000000000000000000000000000000000000000000000060648201526084016108a2565b6000808673ffffffffffffffffffffffffffffffffffffffff168587604051612ea891906135a6565b60006040518083038185875af1925050503d8060008114612ee5576040519150601f19603f3d011682016040523d82523d6000602084013e612eea565b606091505b50915091506112828783838760608315612f89578251612f825773ffffffffffffffffffffffffffffffffffffffff85163b612f82576040517f08c379a000000000000000000000000000000000000000000000000000000000815260206004820152601d60248201527f416464726573733a2063616c6c20746f206e6f6e2d636f6e747261637400000060448201526064016108a2565b5081612de5565b612de58383815115612f9e5781518083602001fd5b806040517f08c379a00000000000000000000000000000000000000000000000000000000081526004016108a291906134cb565b600060208284031215612fe457600080fd5b81357fffffffff0000000000000000000000000000000000000000000000000000000081168114612ce057600080fd5b73ffffffffffffffffffffffffffffffffffffffff811681146108b357600080fd5b803561304181613014565b919050565b60006020828403121561305857600080fd5b8135612ce081613014565b60006020828403121561307557600080fd5b5035919050565b600080600080600080600060e0888a03121561309757600080fd5b87356130a281613014565b96506020880135955060408801356130b981613014565b94506060880135935060808801356130d081613014565b9699959850939692959460a0840135945060c09093013592915050565b6000806040838503121561310057600080fd5b82359150602083013561311281613014565b809150509250929050565b7f4e487b7100000000000000000000000000000000000000000000000000000000600052604160045260246000fd5b60008060006060848603121561316157600080fd5b833561316c81613014565b925060208481013567ffffffffffffffff8082111561318a57600080fd5b818701915087601f83011261319e57600080fd5b8135818111156131b0576131b061311d565b8060051b6040517fffffffffffffffffffffffffffffffffffffffffffffffffffffffffffffffe0603f830116810181811085821117156131f3576131f361311d565b60405291825284820192508381018501918a83111561321157600080fd5b938501935b828510156132365761322785613036565b84529385019392850192613216565b979a979950505050604095909501359450505050565b6000806000806080858703121561326257600080fd5b843561326d81613014565b935060208501359250604085013561328481613014565b9396929550929360600135925050565b600080600080600060a086880312156132ac57600080fd5b85356132b781613014565b94506020860135935060408601356132ce81613014565b94979396509394606081013594506080013592915050565b600080604083850312156132f957600080fd5b823561330481613014565b9150602083013561311281613014565b6000806000806080858703121561332a57600080fd5b843561333581613014565b966020860135965060408601359560600135945092505050565b7f4e487b7100000000000000000000000000000000000000000000000000000000600052602160045260246000fd5b7f4e487b7100000000000000000000000000000000000000000000000000000000600052603260045260246000fd5b7f4e487b7100000000000000000000000000000000000000000000000000000000600052601160045260246000fd5b600060ff821660ff8114156133f3576133f36133ad565b60010192915050565b60006020828403121561340e57600080fd5b81518015158114612ce057600080fd5b60005b83811015613439578181015183820152602001613421565b83811115610ecd5750506000910152565b7f416363657373436f6e74726f6c3a206163636f756e742000000000000000000081526000835161348281601785016020880161341e565b7f206973206d697373696e6720726f6c652000000000000000000000000000000060179184019182015283516134bf81602884016020880161341e565b01602801949350505050565b60208152600082518060208401526134ea81604085016020870161341e565b601f017fffffffffffffffffffffffffffffffffffffffffffffffffffffffffffffffe0169190910160400192915050565b6000821982111561352f5761352f6133ad565b500190565b6000817fffffffffffffffffffffffffffffffffffffffffffffffffffffffffffffffff048311821515161561356c5761356c6133ad565b500290565b600081613580576135806133ad565b507fffffffffffffffffffffffffffffffffffffffffffffffffffffffffffffffff0190565b600082516135b881846020870161341e565b919091019291505056fea26469706673582212209059aec5ff7548940fe96cbfdcd1e76885f3dbaa89d8095576b225694223866d64736f6c634300080a0033",
  "linkReferences": {},
  "deployedLinkReferences": {}
}