{
  "_format": "hh-sol-artifact-1",
  "contractName": "FileBridge",
  "sourceName": "contracts/bridge/FileBridge.sol",
  "abi": [
    {
      "inputs": [],
      "stateMutability": "nonpayable",
      "type": "constructor"
    },
    {
      "inputs": [],
      "name": "NOT_SUPPORTED_TOKEN",
      "type": "error"
    },
    {
      "inputs": [],
      "name": "OWNER_ADDRESS_ZERO",
      "type": "error"
    },
    {
      "inputs": [],
      "name": "TOKEN_DOESNT_EXIST",
      "type": "error"
    },
    {
      "inputs": [],
      "name": "TOKEN_EXIST",
      "type": "error"
    },
    {
      "inputs": [],
      "name": "TRANSFER_FAILED",
      "type": "error"
    },
    {
      "inputs": [],
      "name": "WRONGE_SIG",
      "type": "error"
    },
    {
      "inputs": [],
      "name": "WRONG_CHAIN",
      "type": "error"
    },
    {
      "anonymous": false,
      "inputs": [
        {
          "indexed": true,
          "internalType": "address",
          "name": "to",
          "type": "address"
        },
        {
          "indexed": false,
          "internalType": "uint256",
          "name": "chainId",
          "type": "uint256"
        },
        {
          "indexed": false,
          "internalType": "contract IFToken",
          "name": "token",
          "type": "address"
        },
        {
          "indexed": false,
          "internalType": "uint256",
          "name": "amount",
          "type": "uint256"
        }
      ],
      "name": "FTokenDeposited",
      "type": "event"
    },
    {
      "anonymous": false,
      "inputs": [
        {
          "indexed": true,
          "internalType": "address",
          "name": "to",
          "type": "address"
        },
        {
          "indexed": false,
          "internalType": "uint256",
          "name": "chainId",
          "type": "uint256"
        },
        {
          "indexed": false,
          "internalType": "contract IFToken",
          "name": "token",
          "type": "address"
        },
        {
          "indexed": false,
          "internalType": "uint256",
          "name": "amount",
          "type": "uint256"
        }
      ],
      "name": "FTokenRedeemed",
      "type": "event"
    },
    {
      "anonymous": false,
      "inputs": [
        {
          "indexed": false,
          "internalType": "uint8",
          "name": "version",
          "type": "uint8"
        }
      ],
      "name": "Initialized",
      "type": "event"
    },
    {
      "anonymous": false,
      "inputs": [
        {
          "indexed": true,
          "internalType": "address",
          "name": "to",
          "type": "address"
        },
        {
          "indexed": false,
          "internalType": "uint256",
          "name": "chainId",
          "type": "uint256"
        },
        {
          "indexed": false,
          "internalType": "uint256",
          "name": "amount",
          "type": "uint256"
        }
      ],
      "name": "NativeTokenDeposited",
      "type": "event"
    },
    {
      "anonymous": false,
      "inputs": [
        {
          "indexed": true,
          "internalType": "address",
          "name": "to",
          "type": "address"
        },
        {
          "indexed": false,
          "internalType": "uint256",
          "name": "chainId",
          "type": "uint256"
        },
        {
          "indexed": false,
          "internalType": "uint256",
          "name": "amount",
          "type": "uint256"
        }
      ],
      "name": "NativeTokenRedeemed",
      "type": "event"
    },
    {
      "anonymous": false,
      "inputs": [
        {
          "indexed": false,
          "internalType": "address",
          "name": "account",
          "type": "address"
        }
      ],
      "name": "Paused",
      "type": "event"
    },
    {
      "anonymous": false,
      "inputs": [
        {
          "indexed": true,
          "internalType": "bytes32",
          "name": "role",
          "type": "bytes32"
        },
        {
          "indexed": true,
          "internalType": "bytes32",
          "name": "previousAdminRole",
          "type": "bytes32"
        },
        {
          "indexed": true,
          "internalType": "bytes32",
          "name": "newAdminRole",
          "type": "bytes32"
        }
      ],
      "name": "RoleAdminChanged",
      "type": "event"
    },
    {
      "anonymous": false,
      "inputs": [
        {
          "indexed": true,
          "internalType": "bytes32",
          "name": "role",
          "type": "bytes32"
        },
        {
          "indexed": true,
          "internalType": "address",
          "name": "account",
          "type": "address"
        },
        {
          "indexed": true,
          "internalType": "address",
          "name": "sender",
          "type": "address"
        }
      ],
      "name": "RoleGranted",
      "type": "event"
    },
    {
      "anonymous": false,
      "inputs": [
        {
          "indexed": true,
          "internalType": "bytes32",
          "name": "role",
          "type": "bytes32"
        },
        {
          "indexed": true,
          "internalType": "address",
          "name": "account",
          "type": "address"
        },
        {
          "indexed": true,
          "internalType": "address",
          "name": "sender",
          "type": "address"
        }
      ],
      "name": "RoleRevoked",
      "type": "event"
    },
    {
      "anonymous": false,
      "inputs": [
        {
          "indexed": false,
          "internalType": "address",
          "name": "_token",
          "type": "address"
        },
        {
          "indexed": false,
          "internalType": "address",
          "name": "_WToken",
          "type": "address"
        }
      ],
      "name": "TokenAddedToList",
      "type": "event"
    },
    {
      "anonymous": false,
      "inputs": [
        {
          "indexed": false,
          "internalType": "address",
          "name": "_token",
          "type": "address"
        },
        {
          "indexed": false,
          "internalType": "address",
          "name": "_WTokenOld",
          "type": "address"
        },
        {
          "indexed": false,
          "internalType": "address",
          "name": "_WTokenNew",
          "type": "address"
        }
      ],
      "name": "TokenChangedInList",
      "type": "event"
    },
    {
      "anonymous": false,
      "inputs": [
        {
          "indexed": true,
          "internalType": "address",
          "name": "to",
          "type": "address"
        },
        {
          "indexed": false,
          "internalType": "uint256",
          "name": "chainId",
          "type": "uint256"
        },
        {
          "indexed": false,
          "internalType": "contract IERC20",
          "name": "token",
          "type": "address"
        },
        {
          "indexed": false,
          "internalType": "uint256",
          "name": "amount",
          "type": "uint256"
        }
      ],
      "name": "TokenDeposited",
      "type": "event"
    },
    {
      "anonymous": false,
      "inputs": [
        {
          "indexed": true,
          "internalType": "address",
          "name": "to",
          "type": "address"
        },
        {
          "indexed": false,
          "internalType": "uint256",
          "name": "chainId",
          "type": "uint256"
        },
        {
          "indexed": false,
          "internalType": "contract IERC20",
          "name": "token",
          "type": "address"
        },
        {
          "indexed": false,
          "internalType": "uint256",
          "name": "amount",
          "type": "uint256"
        }
      ],
      "name": "TokenRedeemed",
      "type": "event"
    },
    {
      "anonymous": false,
      "inputs": [
        {
          "indexed": false,
          "internalType": "address",
          "name": "_token",
          "type": "address"
        }
      ],
      "name": "TokenRemovedFromList",
      "type": "event"
    },
    {
      "anonymous": false,
      "inputs": [
        {
          "indexed": false,
          "internalType": "address",
          "name": "account",
          "type": "address"
        }
      ],
      "name": "Unpaused",
      "type": "event"
    },
    {
      "anonymous": false,
      "inputs": [],
      "name": "guardianClosed",
      "type": "event"
    },
    {
      "anonymous": false,
      "inputs": [],
      "name": "guardianTerminated",
      "type": "event"
    },
    {
      "inputs": [],
      "name": "DEFAULT_ADMIN_ROLE",
      "outputs": [
        {
          "internalType": "bytes32",
          "name": "",
          "type": "bytes32"
        }
      ],
      "stateMutability": "view",
      "type": "function"
    },
    {
      "inputs": [],
      "name": "GOVERNANCE_ROLE",
      "outputs": [
        {
          "internalType": "bytes32",
          "name": "",
          "type": "bytes32"
        }
      ],
      "stateMutability": "view",
      "type": "function"
    },
    {
      "inputs": [],
      "name": "GUARDIAN_ROLE",
      "outputs": [
        {
          "internalType": "bytes32",
          "name": "",
          "type": "bytes32"
        }
      ],
      "stateMutability": "view",
      "type": "function"
    },
    {
      "inputs": [],
      "name": "WFIL_ADDRESS",
      "outputs": [
        {
          "internalType": "address payable",
          "name": "",
          "type": "address"
        }
      ],
      "stateMutability": "view",
      "type": "function"
    },
    {
      "inputs": [],
      "name": "acceptebleThreshold",
      "outputs": [
        {
          "internalType": "uint256",
          "name": "",
          "type": "uint256"
        }
      ],
      "stateMutability": "view",
      "type": "function"
    },
    {
      "inputs": [
        {
          "internalType": "address",
          "name": "_token",
          "type": "address"
        },
        {
          "internalType": "address",
          "name": "_fToken",
          "type": "address"
        }
      ],
      "name": "addWToken",
      "outputs": [],
      "stateMutability": "nonpayable",
      "type": "function"
    },
    {
      "inputs": [],
      "name": "bridgeVersion",
      "outputs": [
        {
          "internalType": "uint256",
          "name": "",
          "type": "uint256"
        }
      ],
      "stateMutability": "view",
      "type": "function"
    },
    {
      "inputs": [
        {
          "internalType": "address",
          "name": "_token",
          "type": "address"
        },
        {
          "internalType": "address",
          "name": "_fToken",
          "type": "address"
        }
      ],
      "name": "changeWToken",
      "outputs": [],
      "stateMutability": "nonpayable",
      "type": "function"
    },
    {
      "inputs": [],
      "name": "closeguardian",
      "outputs": [],
      "stateMutability": "nonpayable",
      "type": "function"
    },
    {
      "inputs": [
        {
          "internalType": "address",
          "name": "to",
          "type": "address"
        },
        {
          "internalType": "uint256",
          "name": "chainId",
          "type": "uint256"
        },
        {
          "internalType": "contract IFToken",
          "name": "fToken",
          "type": "address"
        },
        {
          "internalType": "uint256",
          "name": "amount",
          "type": "uint256"
        }
      ],
      "name": "depositFToken",
      "outputs": [],
      "stateMutability": "nonpayable",
      "type": "function"
    },
    {
      "inputs": [
        {
          "internalType": "address",
          "name": "to",
          "type": "address"
        },
        {
          "internalType": "uint256",
          "name": "chainId",
          "type": "uint256"
        }
      ],
      "name": "depositNativeToken",
      "outputs": [],
      "stateMutability": "payable",
      "type": "function"
    },
    {
      "inputs": [
        {
          "internalType": "address",
          "name": "to",
          "type": "address"
        },
        {
          "internalType": "uint256",
          "name": "chainId",
          "type": "uint256"
        },
        {
          "internalType": "contract IERC20",
          "name": "token",
          "type": "address"
        },
        {
          "internalType": "uint256",
          "name": "amount",
          "type": "uint256"
        }
      ],
      "name": "depositToken",
      "outputs": [],
      "stateMutability": "nonpayable",
      "type": "function"
    },
    {
      "inputs": [
        {
          "internalType": "address",
          "name": "tokenAddress",
          "type": "address"
        }
      ],
      "name": "getFeeBalance",
      "outputs": [
        {
          "internalType": "uint256",
          "name": "",
          "type": "uint256"
        }
      ],
      "stateMutability": "view",
      "type": "function"
    },
    {
      "inputs": [
        {
          "internalType": "bytes32",
          "name": "role",
          "type": "bytes32"
        }
      ],
      "name": "getRoleAdmin",
      "outputs": [
        {
          "internalType": "bytes32",
          "name": "",
          "type": "bytes32"
        }
      ],
      "stateMutability": "view",
      "type": "function"
    },
    {
      "inputs": [
        {
          "internalType": "bytes32",
          "name": "role",
          "type": "bytes32"
        },
        {
          "internalType": "address",
          "name": "account",
          "type": "address"
        }
      ],
      "name": "grantRole",
      "outputs": [],
      "stateMutability": "nonpayable",
      "type": "function"
    },
    {
      "inputs": [
        {
          "internalType": "bytes32",
          "name": "role",
          "type": "bytes32"
        },
        {
          "internalType": "address",
          "name": "account",
          "type": "address"
        }
      ],
      "name": "hasRole",
      "outputs": [
        {
          "internalType": "bool",
          "name": "",
          "type": "bool"
        }
      ],
      "stateMutability": "view",
      "type": "function"
    },
    {
      "inputs": [
        {
          "internalType": "address",
          "name": "_owner",
          "type": "address"
        },
        {
          "internalType": "address[]",
          "name": "_members",
          "type": "address[]"
        },
        {
          "internalType": "uint256",
          "name": "_honestThreshold",
          "type": "uint256"
        }
      ],
      "name": "initialize",
      "outputs": [],
      "stateMutability": "nonpayable",
      "type": "function"
    },
    {
      "inputs": [],
      "name": "isActive",
      "outputs": [
        {
          "internalType": "bool",
          "name": "",
          "type": "bool"
        }
      ],
      "stateMutability": "view",
      "type": "function"
    },
    {
      "inputs": [],
      "name": "isClosed",
      "outputs": [
        {
          "internalType": "bool",
          "name": "",
          "type": "bool"
        }
      ],
      "stateMutability": "view",
      "type": "function"
    },
    {
      "inputs": [],
      "name": "isTerminated",
      "outputs": [
        {
          "internalType": "bool",
          "name": "",
          "type": "bool"
        }
      ],
      "stateMutability": "view",
      "type": "function"
    },
    {
      "inputs": [
        {
          "internalType": "address",
          "name": "owner",
          "type": "address"
        }
      ],
      "name": "nonces",
      "outputs": [
        {
          "internalType": "uint256",
          "name": "",
          "type": "uint256"
        }
      ],
      "stateMutability": "view",
      "type": "function"
    },
    {
      "inputs": [],
      "name": "pause",
      "outputs": [],
      "stateMutability": "nonpayable",
      "type": "function"
    },
    {
      "inputs": [],
      "name": "paused",
      "outputs": [
        {
          "internalType": "bool",
          "name": "",
          "type": "bool"
        }
      ],
      "stateMutability": "view",
      "type": "function"
    },
    {
      "inputs": [
        {
          "internalType": "address",
          "name": "to",
          "type": "address"
        },
        {
          "internalType": "uint256",
          "name": "chainId",
          "type": "uint256"
        },
        {
          "internalType": "contract IFToken",
          "name": "fToken",
          "type": "address"
        },
        {
          "internalType": "uint256",
          "name": "amount",
          "type": "uint256"
        },
        {
          "internalType": "address",
          "name": "_signer",
          "type": "address"
        },
        {
          "internalType": "bytes32",
          "name": "r",
          "type": "bytes32"
        },
        {
          "internalType": "bytes32",
          "name": "vs",
          "type": "bytes32"
        }
      ],
      "name": "redeemFToken",
      "outputs": [],
      "stateMutability": "nonpayable",
      "type": "function"
    },
    {
      "inputs": [
        {
          "internalType": "address",
          "name": "to",
          "type": "address"
        },
        {
          "internalType": "uint256",
          "name": "chainId",
          "type": "uint256"
        },
        {
          "internalType": "contract IERC20",
          "name": "fToken",
          "type": "address"
        },
        {
          "internalType": "uint256",
          "name": "amount",
          "type": "uint256"
        },
        {
          "internalType": "uint256",
          "name": "nonce",
          "type": "uint256"
        }
      ],
      "name": "redeemFTokenHashGenerator",
      "outputs": [
        {
          "internalType": "bytes32",
          "name": "hash",
          "type": "bytes32"
        }
      ],
      "stateMutability": "view",
      "type": "function"
    },
    {
      "inputs": [
        {
          "internalType": "address",
          "name": "to",
          "type": "address"
        },
        {
          "internalType": "uint256",
          "name": "chainId",
          "type": "uint256"
        },
        {
          "internalType": "uint256",
          "name": "amount",
          "type": "uint256"
        },
        {
          "internalType": "address",
          "name": "_signer",
          "type": "address"
        },
        {
          "internalType": "bytes32",
          "name": "r",
          "type": "bytes32"
        },
        {
          "internalType": "bytes32",
          "name": "vs",
          "type": "bytes32"
        }
      ],
      "name": "redeemNativeToken",
      "outputs": [],
      "stateMutability": "nonpayable",
      "type": "function"
    },
    {
      "inputs": [
        {
          "internalType": "address",
          "name": "to",
          "type": "address"
        },
        {
          "internalType": "uint256",
          "name": "chainId",
          "type": "uint256"
        },
        {
          "internalType": "uint256",
          "name": "amount",
          "type": "uint256"
        },
        {
          "internalType": "uint256",
          "name": "nonce",
          "type": "uint256"
        }
      ],
      "name": "redeemNativeTokenHashGenerator",
      "outputs": [
        {
          "internalType": "bytes32",
          "name": "hash",
          "type": "bytes32"
        }
      ],
      "stateMutability": "view",
      "type": "function"
    },
    {
      "inputs": [
        {
          "internalType": "address",
          "name": "to",
          "type": "address"
        },
        {
          "internalType": "uint256",
          "name": "chainId",
          "type": "uint256"
        },
        {
          "internalType": "contract IERC20",
          "name": "token",
          "type": "address"
        },
        {
          "internalType": "uint256",
          "name": "amount",
          "type": "uint256"
        },
        {
          "internalType": "address",
          "name": "_signer",
          "type": "address"
        },
        {
          "internalType": "bytes32",
          "name": "r",
          "type": "bytes32"
        },
        {
          "internalType": "bytes32",
          "name": "vs",
          "type": "bytes32"
        }
      ],
      "name": "redeemToken",
      "outputs": [],
      "stateMutability": "nonpayable",
      "type": "function"
    },
    {
      "inputs": [
        {
          "internalType": "address",
          "name": "to",
          "type": "address"
        },
        {
          "internalType": "uint256",
          "name": "chainId",
          "type": "uint256"
        },
        {
          "internalType": "contract IERC20",
          "name": "token",
          "type": "address"
        },
        {
          "internalType": "uint256",
          "name": "amount",
          "type": "uint256"
        },
        {
          "internalType": "uint256",
          "name": "nonce",
          "type": "uint256"
        }
      ],
      "name": "redeemTokenHashGenerator",
      "outputs": [
        {
          "internalType": "bytes32",
          "name": "hash",
          "type": "bytes32"
        }
      ],
      "stateMutability": "view",
      "type": "function"
    },
    {
      "inputs": [
        {
          "internalType": "address",
          "name": "_token",
          "type": "address"
        }
      ],
      "name": "removeWToken",
      "outputs": [],
      "stateMutability": "nonpayable",
      "type": "function"
    },
    {
      "inputs": [
        {
          "internalType": "bytes32",
          "name": "role",
          "type": "bytes32"
        },
        {
          "internalType": "address",
          "name": "account",
          "type": "address"
        }
      ],
      "name": "renounceRole",
      "outputs": [],
      "stateMutability": "nonpayable",
      "type": "function"
    },
    {
      "inputs": [
        {
          "internalType": "bytes32",
          "name": "role",
          "type": "bytes32"
        },
        {
          "internalType": "address",
          "name": "account",
          "type": "address"
        }
      ],
      "name": "revokeRole",
      "outputs": [],
      "stateMutability": "nonpayable",
      "type": "function"
    },
    {
      "inputs": [
        {
          "internalType": "address payable",
          "name": "_wethAddress",
          "type": "address"
        }
      ],
      "name": "setWethAddress",
      "outputs": [],
      "stateMutability": "nonpayable",
      "type": "function"
    },
    {
      "inputs": [],
      "name": "startBlockNumber",
      "outputs": [
        {
          "internalType": "uint256",
          "name": "",
          "type": "uint256"
        }
      ],
      "stateMutability": "view",
      "type": "function"
    },
    {
      "inputs": [
        {
          "internalType": "bytes4",
          "name": "interfaceId",
          "type": "bytes4"
        }
      ],
      "name": "supportsInterface",
      "outputs": [
        {
          "internalType": "bool",
          "name": "",
          "type": "bool"
        }
      ],
      "stateMutability": "view",
      "type": "function"
    },
    {
      "inputs": [
        {
          "internalType": "address",
          "name": "",
          "type": "address"
        }
      ],
      "name": "tokenToWTokenMap",
      "outputs": [
        {
          "internalType": "address",
          "name": "",
          "type": "address"
        }
      ],
      "stateMutability": "view",
      "type": "function"
    },
    {
      "inputs": [],
      "name": "unpause",
      "outputs": [],
      "stateMutability": "nonpayable",
      "type": "function"
    },
    {
      "inputs": [
        {
          "internalType": "contract IERC20",
          "name": "token",
          "type": "address"
        },
        {
          "internalType": "address",
          "name": "to",
          "type": "address"
        }
      ],
      "name": "withdrawFees",
      "outputs": [],
      "stateMutability": "nonpayable",
      "type": "function"
    },
    {
      "stateMutability": "payable",
      "type": "receive"
    }
  ],
  "bytecode": "0x61014060405234801561001157600080fd5b50604080518082018252600a81526946696c6542726964676560b01b6020808301918252835180850190945260018452603160f81b908401528151902060e08190527fc89efdaa54c0f20c7adf612882df0950f5a951637e0307cdcb4c672f298b8bc66101008190524660a0529192917f8b73c3c69bb8fe3d512ecc4cf759cc79239f7b179b0ffacaa9a75d522b39400f6100f18184846040805160208101859052908101839052606081018290524660808201523060a082015260009060c0016040516020818303038152906040528051906020012090509392505050565b6080523060c052610120525061010692505050565b60805160a05160c05160e0516101005161012051613ace620001566000396000612aae01526000612afd01526000612ad801526000612a3101526000612a5b01526000612a850152613ace6000f3fe6080604052600436106102895760003560e01c8063935737cd11610153578063c78f6803116100cb578063d547741f1161007f578063ebe9233c11610064578063ebe9233c1461076a578063f25552781461078a578063f36c8f5c146107aa57600080fd5b8063d547741f1461072a578063e32c1ef71461074a57600080fd5b8063d1cc9976116100b0578063d1cc9976146106d5578063d2a876d2146106ea578063d4ba26f81461070a57600080fd5b8063c78f680314610664578063c9422fe3146106a757600080fd5b8063a96e242311610122578063c037e7de11610107578063c037e7de1461061c578063c236b7221461063c578063c2b6b58c1461064f57600080fd5b8063a96e2423146105e7578063ac8656261461060757600080fd5b8063935737cd1461057257806394669dc41461059257806397a86138146105b2578063a217fddf146105d257600080fd5b806336568abe116102015780636701ccb5116101b55780637ecebe001161019a5780637ecebe00146104ea5780638456cb591461050a57806391d148541461051f57600080fd5b80636701ccb5146104aa57806370d32983146104ca57600080fd5b80633f4ba83a116101e65780633f4ba83a14610466578063498a4c2d1461047b5780635c975abb1461049257600080fd5b806336568abe146104265780633ede50c61461044657600080fd5b8063248a9ca3116102585780632609b4a81161023d5780632609b4a8146103d0578063299bb715146103f05780632f2ff15d1461040657600080fd5b8063248a9ca31461035e57806324ea54f41461039c57600080fd5b806301ffc9a71461029557806307c62ee2146102ca5780630adc703f146102e157806322f3e2d41461034957600080fd5b3661029057005b600080fd5b3480156102a157600080fd5b506102b56102b0366004613420565b6107de565b60405190151581526020015b60405180910390f35b3480156102d657600080fd5b506102df610877565b005b3480156102ed57600080fd5b506103246102fc366004613494565b60fe6020526000908152604090205473ffffffffffffffffffffffffffffffffffffffff1681565b60405173ffffffffffffffffffffffffffffffffffffffff90911681526020016102c1565b34801561035557600080fd5b506102b561091f565b34801561036a57600080fd5b5061038e6103793660046134b1565b600090815260c9602052604090206001015490565b6040519081526020016102c1565b3480156103a857600080fd5b5061038e7f55435dd261a4b9b3364963f7738a7a662ad9c84396d64be3365284bb7f0a504181565b3480156103dc57600080fd5b506102df6103eb3660046134ca565b610940565b3480156103fc57600080fd5b5061038e60fb5481565b34801561041257600080fd5b506102df61042136600461353b565b610b66565b34801561043257600080fd5b506102df61044136600461353b565b610b90565b34801561045257600080fd5b506102df61046136600461359a565b610c43565b34801561047257600080fd5b506102df610f3c565b34801561048757600080fd5b5061038e6101005481565b34801561049e57600080fd5b5060655460ff166102b5565b3480156104b657600080fd5b506102df6104c536600461369a565b610f6e565b3480156104d657600080fd5b506102df6104e53660046136e2565b6111fe565b3480156104f657600080fd5b5061038e610505366004613494565b61141a565b34801561051657600080fd5b506102df611445565b34801561052b57600080fd5b506102b561053a36600461353b565b600091825260c96020908152604080842073ffffffffffffffffffffffffffffffffffffffff93909316845291905290205460ff1690565b34801561057e57600080fd5b5061038e61058d36600461373e565b611477565b34801561059e57600080fd5b5061038e6105ad36600461373e565b611512565b3480156105be57600080fd5b506102df6105cd36600461369a565b611585565b3480156105de57600080fd5b5061038e600081565b3480156105f357600080fd5b506102df610602366004613494565b611679565b34801561061357600080fd5b5061038e600181565b34801561062857600080fd5b506102df610637366004613494565b6116ec565b6102df61064a366004613790565b6117f7565b34801561065b57600080fd5b506102b56118e3565b34801561067057600080fd5b5061038e61067f366004613494565b73ffffffffffffffffffffffffffffffffffffffff16600090815260fd602052604090205490565b3480156106b357600080fd5b50610101546103249073ffffffffffffffffffffffffffffffffffffffff1681565b3480156106e157600080fd5b506102b56118ec565b3480156106f657600080fd5b506102df6107053660046134ca565b6118f5565b34801561071657600080fd5b506102df6107253660046137bc565b611b05565b34801561073657600080fd5b506102df61074536600461353b565b611c4a565b34801561075657600080fd5b506102df6107653660046137bc565b611c6f565b34801561077657600080fd5b5061038e6107853660046137ea565b611d89565b34801561079657600080fd5b506102df6107a53660046137bc565b611e19565b3480156107b657600080fd5b5061038e7f71840dc4906352362b0cdaf79870196c8e42acafade72d5d5a6d59291253ceb181565b60007fffffffff0000000000000000000000000000000000000000000000000000000082167f7965db0b00000000000000000000000000000000000000000000000000000000148061087157507f01ffc9a7000000000000000000000000000000000000000000000000000000007fffffffff000000000000000000000000000000000000000000000000000000008316145b92915050565b7f71840dc4906352362b0cdaf79870196c8e42acafade72d5d5a6d59291253ceb16108a181611f4e565b6108a961091f565b610914576040517f08c379a000000000000000000000000000000000000000000000000000000000815260206004820152601660248201527f677561726469616e206973206e6f74206163746976650000000000000000000060448201526064015b60405180910390fd5b61091c611f58565b50565b6000805b60fc5460ff16600281111561093a5761093a613825565b14905090565b610948611fad565b610950612021565b4686811461098a576040517f46ba812900000000000000000000000000000000000000000000000000000000815260040160405180910390fd5b60007f0257b5515675be471b2103a273ec0031c5d69d132c40f1b555f05c20decfcea0898989896109e58a73ffffffffffffffffffffffffffffffffffffffff16600090815260ff6020526040902080546001810190915590565b60408051602081019790975273ffffffffffffffffffffffffffffffffffffffff9586169087015260608601939093529216608084015260a083019190915260c082015260e0016040516020818303038152906040528051906020012090506000610a4f82612090565b90506000610a5e8287876120f9565b73ffffffffffffffffffffffffffffffffffffffff811660009081527f42433f30842f027234f95eef6ba52ea4eb9f1310dcea3f4c81958054d311825b602052604090205490915060ff16610adf576040517f0653c41500000000000000000000000000000000000000000000000000000000815260040160405180910390fd5b8673ffffffffffffffffffffffffffffffffffffffff168173ffffffffffffffffffffffffffffffffffffffff1614610b44576040517f0653c41500000000000000000000000000000000000000000000000000000000815260040160405180910390fd5b610b508b8b8b8b61211f565b50505050610b5d60018055565b50505050505050565b600082815260c96020526040902060010154610b8181611f4e565b610b8b838361232f565b505050565b73ffffffffffffffffffffffffffffffffffffffff81163314610c35576040517f08c379a000000000000000000000000000000000000000000000000000000000815260206004820152602f60248201527f416363657373436f6e74726f6c3a2063616e206f6e6c792072656e6f756e636560448201527f20726f6c657320666f722073656c660000000000000000000000000000000000606482015260840161090b565b610c3f8282612423565b5050565b600054610100900460ff1615808015610c635750600054600160ff909116105b80610c7d5750303b158015610c7d575060005460ff166001145b610d09576040517f08c379a000000000000000000000000000000000000000000000000000000000815260206004820152602e60248201527f496e697469616c697a61626c653a20636f6e747261637420697320616c72656160448201527f647920696e697469616c697a6564000000000000000000000000000000000000606482015260840161090b565b600080547fffffffffffffffffffffffffffffffffffffffffffffffffffffffffffffff001660011790558015610d6757600080547fffffffffffffffffffffffffffffffffffffffffffffffffffffffffffff00ff166101001790555b4361010055610d776000856124de565b610da17f71840dc4906352362b0cdaf79870196c8e42acafade72d5d5a6d59291253ceb1856124de565b610da96124e8565b73ffffffffffffffffffffffffffffffffffffffff8416610df6576040517ff7acd5b600000000000000000000000000000000000000000000000000000000815260040160405180910390fd5b60005b83518160ff161015610e5d57610e4b7f55435dd261a4b9b3364963f7738a7a662ad9c84396d64be3365284bb7f0a5041858360ff1681518110610e3e57610e3e613854565b60200260200101516124de565b80610e55816138b2565b915050610df9565b5060fb829055610e6b6124e8565b60fc80547fffffffffffffffffffffffffffffffffffffffffffffffffffffffffffffff0016905561010180547fffffffffffffffffffffff00ffffffffffffffffffffffffffffffffffffffff16740100000000000000000000000000000000000000001790558015610f3657600080547fffffffffffffffffffffffffffffffffffffffffffffffffffffffffffff00ff169055604051600181527f7f26b83ff96e1f2b6a682f133852f6798a09c465da95921460cefb38474024989060200160405180910390a15b50505050565b7f71840dc4906352362b0cdaf79870196c8e42acafade72d5d5a6d59291253ceb1610f6681611f4e565b61091c61257f565b610f76611fad565b610f7e612021565b73ffffffffffffffffffffffffffffffffffffffff808316600090815260fe60205260409020541680610fdd576040517f7d96f86200000000000000000000000000000000000000000000000000000000815260040160405180910390fd5b6040805185815273ffffffffffffffffffffffffffffffffffffffff8581166020830152918101849052908616907fde46609fac561bc42e82d3807108fa2f23cbba2092b986150752441d25d6970d9060600160405180910390a261105a73ffffffffffffffffffffffffffffffffffffffff84163330856125fc565b6040517f095ea7b300000000000000000000000000000000000000000000000000000000815273ffffffffffffffffffffffffffffffffffffffff82811660048301526024820184905284169063095ea7b3906044016020604051808303816000875af11580156110cf573d6000803e3d6000fd5b505050506040513d601f19601f820116820180604052508101906110f391906138d2565b506040517fb6b55f250000000000000000000000000000000000000000000000000000000081526004810183905273ffffffffffffffffffffffffffffffffffffffff82169063b6b55f2590602401600060405180830381600087803b15801561115c57600080fd5b505af1158015611170573d6000803e3d6000fd5b50506040517f42966c680000000000000000000000000000000000000000000000000000000081526004810185905273ffffffffffffffffffffffffffffffffffffffff841692506342966c689150602401600060405180830381600087803b1580156111dc57600080fd5b505af11580156111f0573d6000803e3d6000fd5b5050505050610f3660018055565b611206611fad565b61120e612021565b46858114611248576040517f46ba812900000000000000000000000000000000000000000000000000000000815260040160405180910390fd5b60007f8bcb0d3c80569d6069caf887efc59d94f8ca64d00bf62166fa1f8e1430c20c3f8888886112a28973ffffffffffffffffffffffffffffffffffffffff16600090815260ff6020526040902080546001810190915590565b60408051602081019690965273ffffffffffffffffffffffffffffffffffffffff909416938501939093526060840191909152608083015260a082015260c001604051602081830303815290604052805190602001209050600061130582612090565b905060006113148287876120f9565b73ffffffffffffffffffffffffffffffffffffffff811660009081527f42433f30842f027234f95eef6ba52ea4eb9f1310dcea3f4c81958054d311825b602052604090205490915060ff16611395576040517f0653c41500000000000000000000000000000000000000000000000000000000815260040160405180910390fd5b8673ffffffffffffffffffffffffffffffffffffffff168173ffffffffffffffffffffffffffffffffffffffff16146113fa576040517f0653c41500000000000000000000000000000000000000000000000000000000815260040160405180910390fd5b6114058a8a8a6126d8565b5050505061141260018055565b505050505050565b73ffffffffffffffffffffffffffffffffffffffff8116600090815260ff6020526040812054610871565b7f71840dc4906352362b0cdaf79870196c8e42acafade72d5d5a6d59291253ceb161146f81611f4e565b61091c6127c3565b604080517f7dfa05d451d30dd62973a64c7104df068298e24943e64dc3c3bc8e78e63c4172602082015273ffffffffffffffffffffffffffffffffffffffff8088169282019290925260608101869052908416608082015260a0810183905260c08101829052600090819060e0015b60405160208183030381529060405280519060200120905061150781612090565b979650505050505050565b604080517f0257b5515675be471b2103a273ec0031c5d69d132c40f1b555f05c20decfcea0602082015273ffffffffffffffffffffffffffffffffffffffff8088169282019290925260608101869052908416608082015260a0810183905260c08101829052600090819060e0016114e6565b61158d611fad565b611595612021565b6040805184815273ffffffffffffffffffffffffffffffffffffffff8481166020830152918101839052908516907f29613a3cca480d9491430c9a0f1fe35deced7ea41b87806630b1275812ade8ab9060600160405180910390a26040517f42966c680000000000000000000000000000000000000000000000000000000081526004810182905273ffffffffffffffffffffffffffffffffffffffff8316906342966c6890602401600060405180830381600087803b15801561165857600080fd5b505af115801561166c573d6000803e3d6000fd5b50505050610f3660018055565b7f71840dc4906352362b0cdaf79870196c8e42acafade72d5d5a6d59291253ceb16116a381611f4e565b5061010180547fffffffffffffffffffffffff00000000000000000000000000000000000000001673ffffffffffffffffffffffffffffffffffffffff92909216919091179055565b7f71840dc4906352362b0cdaf79870196c8e42acafade72d5d5a6d59291253ceb161171681611f4e565b73ffffffffffffffffffffffffffffffffffffffff828116600090815260fe602052604090205416611774576040517f7c3c605400000000000000000000000000000000000000000000000000000000815260040160405180910390fd5b73ffffffffffffffffffffffffffffffffffffffff8216600081815260fe602090815260409182902080547fffffffffffffffffffffffff000000000000000000000000000000000000000016905590519182527fd1430f7c8d782550f18b6c7da273333e083a2b7095d212a2f6c82c33a5d4b052910160405180910390a15050565b6117ff611fad565b611807612021565b6040805182815234602082015273ffffffffffffffffffffffffffffffffffffffff8416917f6317dc71b492c1bbf55cf24566ac5a3a3da77e524ddd0950bbd684b9978ffd93910160405180910390a261010160009054906101000a900473ffffffffffffffffffffffffffffffffffffffff1673ffffffffffffffffffffffffffffffffffffffff1663d0e30db06040518163ffffffff1660e01b8152600401600060405180830381600087803b1580156118c257600080fd5b505af11580156118d6573d6000803e3d6000fd5b50505050610c3f60018055565b60006001610923565b60006002610923565b6118fd611fad565b611905612021565b4686811461193f576040517f46ba812900000000000000000000000000000000000000000000000000000000815260040160405180910390fd5b60007f7dfa05d451d30dd62973a64c7104df068298e24943e64dc3c3bc8e78e63c41728989898961199a8a73ffffffffffffffffffffffffffffffffffffffff16600090815260ff6020526040902080546001810190915590565b60408051602081019790975273ffffffffffffffffffffffffffffffffffffffff9586169087015260608601939093529216608084015260a083019190915260c082015260e0016040516020818303038152906040528051906020012090506000611a0482612090565b90506000611a138287876120f9565b73ffffffffffffffffffffffffffffffffffffffff811660009081527f42433f30842f027234f95eef6ba52ea4eb9f1310dcea3f4c81958054d311825b602052604090205490915060ff16611a94576040517f0653c41500000000000000000000000000000000000000000000000000000000815260040160405180910390fd5b8673ffffffffffffffffffffffffffffffffffffffff168173ffffffffffffffffffffffffffffffffffffffff1614611af9576040517f0653c41500000000000000000000000000000000000000000000000000000000815260040160405180910390fd5b610b508b8b8b8b61281e565b7f71840dc4906352362b0cdaf79870196c8e42acafade72d5d5a6d59291253ceb1611b2f81611f4e565b73ffffffffffffffffffffffffffffffffffffffff838116600090815260fe602052604090205416611b8d576040517f7c3c605400000000000000000000000000000000000000000000000000000000815260040160405180910390fd5b73ffffffffffffffffffffffffffffffffffffffff838116600081815260fe60209081526040918290205482519384528416908301529184168183015290517f4fe4c8a08efff712b39cdd1a4c2f7c9ef65db180f9987bbe77785fe3d93943729181900360600190a15073ffffffffffffffffffffffffffffffffffffffff918216600090815260fe6020526040902080547fffffffffffffffffffffffff00000000000000000000000000000000000000001691909216179055565b600082815260c96020526040902060010154611c6581611f4e565b610b8b8383612423565b7f71840dc4906352362b0cdaf79870196c8e42acafade72d5d5a6d59291253ceb1611c9981611f4e565b73ffffffffffffffffffffffffffffffffffffffff838116600090815260fe60205260409020541615611cf8576040517fa18c194a00000000000000000000000000000000000000000000000000000000815260040160405180910390fd5b73ffffffffffffffffffffffffffffffffffffffff838116600081815260fe602090815260409182902080547fffffffffffffffffffffffff000000000000000000000000000000000000000016948716948517905581519283528201929092527f8194f8ec86427d430181ba7edda1ba0f0c2aec07a5d94ccbe1322bc03eaa43e5910160405180910390a1505050565b604080517f8bcb0d3c80569d6069caf887efc59d94f8ca64d00bf62166fa1f8e1430c20c3f602082015273ffffffffffffffffffffffffffffffffffffffff861691810191909152606081018490526080810183905260a08101829052600090819060c001604051602081830303815290604052805190602001209050611e0f81612090565b9695505050505050565b611e21612021565b7f71840dc4906352362b0cdaf79870196c8e42acafade72d5d5a6d59291253ceb1611e4b81611f4e565b73ffffffffffffffffffffffffffffffffffffffff8216611ec8576040517f08c379a000000000000000000000000000000000000000000000000000000000815260206004820152601060248201527f4164647265737320697320307830303000000000000000000000000000000000604482015260640161090b565b73ffffffffffffffffffffffffffffffffffffffff8316600090815260fd602052604090205415610b8b5773ffffffffffffffffffffffffffffffffffffffff8316600081815260fd6020526040902054611f2591908490612907565b505073ffffffffffffffffffffffffffffffffffffffff16600090815260fd6020526040812055565b61091c813361295d565b60fc80547fffffffffffffffffffffffffffffffffffffffffffffffffffffffffffffff001660011790556040517e1aa2f31bfd8a202cf1404bdcbb5ee7edce92af589f2b2926bae82fb281a26690600090a1565b6002600154141561201a576040517f08c379a000000000000000000000000000000000000000000000000000000000815260206004820152601f60248201527f5265656e7472616e637947756172643a207265656e7472616e742063616c6c00604482015260640161090b565b6002600155565b60655460ff161561208e576040517f08c379a000000000000000000000000000000000000000000000000000000000815260206004820152601060248201527f5061757361626c653a2070617573656400000000000000000000000000000000604482015260640161090b565b565b600061087161209d612a17565b836040517f19010000000000000000000000000000000000000000000000000000000000006020820152602281018390526042810182905260009060620160405160208183030381529060405280519060200120905092915050565b6000806000612109868686612b4b565b9150915061211681612b9d565b50949350505050565b73ffffffffffffffffffffffffffffffffffffffff828116600081815260fe602090815260409182902054825188815291820193909352908101849052908216918616907fb0ac189509294d914305df704f0472f3b423d22fbd4f97a9f58c3e6a3a4c804b9060600160405180910390a26040517f40c10f190000000000000000000000000000000000000000000000000000000081523060048201526024810183905273ffffffffffffffffffffffffffffffffffffffff8216906340c10f1990604401600060405180830381600087803b1580156121fe57600080fd5b505af1158015612212573d6000803e3d6000fd5b50506040517f2e1a7d4d0000000000000000000000000000000000000000000000000000000081526004810185905273ffffffffffffffffffffffffffffffffffffffff84169250632e1a7d4d9150602401600060405180830381600087803b15801561227e57600080fd5b505af1158015612292573d6000803e3d6000fd5b50506040517fa9059cbb00000000000000000000000000000000000000000000000000000000815273ffffffffffffffffffffffffffffffffffffffff8881166004830152602482018690528616925063a9059cbb91506044016020604051808303816000875af115801561230b573d6000803e3d6000fd5b505050506040513d601f19601f8201168201806040525081019061141291906138d2565b600082815260c96020908152604080832073ffffffffffffffffffffffffffffffffffffffff8516845290915290205460ff16610c3f57600082815260c96020908152604080832073ffffffffffffffffffffffffffffffffffffffff85168452909152902080547fffffffffffffffffffffffffffffffffffffffffffffffffffffffffffffff001660011790556123c53390565b73ffffffffffffffffffffffffffffffffffffffff168173ffffffffffffffffffffffffffffffffffffffff16837f2f8788117e7eff1d82e926ec794901d17c78024a50270940304540a733656f0d60405160405180910390a45050565b600082815260c96020908152604080832073ffffffffffffffffffffffffffffffffffffffff8516845290915290205460ff1615610c3f57600082815260c96020908152604080832073ffffffffffffffffffffffffffffffffffffffff8516808552925280832080547fffffffffffffffffffffffffffffffffffffffffffffffffffffffffffffff0016905551339285917ff6391f5c32d9c69d2a47ea670b442974b53935d1edc7fd64eb21e047a839171b9190a45050565b610c3f828261232f565b600054610100900460ff1661208e576040517f08c379a000000000000000000000000000000000000000000000000000000000815260206004820152602b60248201527f496e697469616c697a61626c653a20636f6e7472616374206973206e6f74206960448201527f6e697469616c697a696e67000000000000000000000000000000000000000000606482015260840161090b565b612587612d54565b606580547fffffffffffffffffffffffffffffffffffffffffffffffffffffffffffffff001690557f5db9ee0a495bf2e6ff9c91a7834c1ba4fdd244a5e8aa4e537bd38aeae4b073aa335b60405173ffffffffffffffffffffffffffffffffffffffff909116815260200160405180910390a1565b60405173ffffffffffffffffffffffffffffffffffffffff80851660248301528316604482015260648101829052610f369085907f23b872dd00000000000000000000000000000000000000000000000000000000906084015b604080517fffffffffffffffffffffffffffffffffffffffffffffffffffffffffffffffe08184030181529190526020810180517bffffffffffffffffffffffffffffffffffffffffffffffffffffffff167fffffffff0000000000000000000000000000000000000000000000000000000090931692909217909152612dc0565b604080518381526020810183905273ffffffffffffffffffffffffffffffffffffffff8516917f74143ffcf968235dce318be60222240a7ff2866935a00201e3069a9d25e6f458910160405180910390a260008373ffffffffffffffffffffffffffffffffffffffff163460405160006040518083038185875af1925050503d8060008114612783576040519150601f19603f3d011682016040523d82523d6000602084013e612788565b606091505b5050905080610f36576040517f3f4ab80e00000000000000000000000000000000000000000000000000000000815260040160405180910390fd5b6127cb612021565b606580547fffffffffffffffffffffffffffffffffffffffffffffffffffffffffffffff001660011790557f62e78cea01bee320cd4e420270b5ea74000d11b0c9f74754ebdbfc544b05a2586125d23390565b6040805184815273ffffffffffffffffffffffffffffffffffffffff8481166020830152918101839052908516907fd846329edee61b3d2dca95b0bcf7834b7b82437d9bd5ebda9209c82dd3062b759060600160405180910390a26040517f40c10f1900000000000000000000000000000000000000000000000000000000815273ffffffffffffffffffffffffffffffffffffffff8581166004830152602482018390528316906340c10f1990604401600060405180830381600087803b1580156128e957600080fd5b505af11580156128fd573d6000803e3d6000fd5b5050505050505050565b60405173ffffffffffffffffffffffffffffffffffffffff8316602482015260448101829052610b8b9084907fa9059cbb0000000000000000000000000000000000000000000000000000000090606401612656565b600082815260c96020908152604080832073ffffffffffffffffffffffffffffffffffffffff8516845290915290205460ff16610c3f5761299d81612ecc565b6129a8836020612eeb565b6040516020016129b9929190613920565b604080517fffffffffffffffffffffffffffffffffffffffffffffffffffffffffffffffe0818403018152908290527f08c379a000000000000000000000000000000000000000000000000000000000825261090b916004016139a1565b60003073ffffffffffffffffffffffffffffffffffffffff7f000000000000000000000000000000000000000000000000000000000000000016148015612a7d57507f000000000000000000000000000000000000000000000000000000000000000046145b15612aa757507f000000000000000000000000000000000000000000000000000000000000000090565b50604080517f00000000000000000000000000000000000000000000000000000000000000006020808301919091527f0000000000000000000000000000000000000000000000000000000000000000828401527f000000000000000000000000000000000000000000000000000000000000000060608301524660808301523060a0808401919091528351808403909101815260c0909201909252805191012090565b6000807f7fffffffffffffffffffffffffffffffffffffffffffffffffffffffffffffff831681612b8160ff86901c601b6139f2565b9050612b8f87828885613135565b935093505050935093915050565b6000816004811115612bb157612bb1613825565b1415612bba5750565b6001816004811115612bce57612bce613825565b1415612c36576040517f08c379a000000000000000000000000000000000000000000000000000000000815260206004820152601860248201527f45434453413a20696e76616c6964207369676e61747572650000000000000000604482015260640161090b565b6002816004811115612c4a57612c4a613825565b1415612cb2576040517f08c379a000000000000000000000000000000000000000000000000000000000815260206004820152601f60248201527f45434453413a20696e76616c6964207369676e6174757265206c656e67746800604482015260640161090b565b6003816004811115612cc657612cc6613825565b141561091c576040517f08c379a000000000000000000000000000000000000000000000000000000000815260206004820152602260248201527f45434453413a20696e76616c6964207369676e6174757265202773272076616c60448201527f7565000000000000000000000000000000000000000000000000000000000000606482015260840161090b565b60655460ff1661208e576040517f08c379a000000000000000000000000000000000000000000000000000000000815260206004820152601460248201527f5061757361626c653a206e6f7420706175736564000000000000000000000000604482015260640161090b565b6000612e22826040518060400160405280602081526020017f5361666545524332303a206c6f772d6c6576656c2063616c6c206661696c65648152508573ffffffffffffffffffffffffffffffffffffffff166132249092919063ffffffff16565b805190915015610b8b5780806020019051810190612e4091906138d2565b610b8b576040517f08c379a000000000000000000000000000000000000000000000000000000000815260206004820152602a60248201527f5361666545524332303a204552433230206f7065726174696f6e20646964206e60448201527f6f74207375636365656400000000000000000000000000000000000000000000606482015260840161090b565b606061087173ffffffffffffffffffffffffffffffffffffffff831660145b60606000612efa836002613a0a565b612f059060026139f2565b67ffffffffffffffff811115612f1d57612f1d61356b565b6040519080825280601f01601f191660200182016040528015612f47576020820181803683370190505b5090507f300000000000000000000000000000000000000000000000000000000000000081600081518110612f7e57612f7e613854565b60200101907effffffffffffffffffffffffffffffffffffffffffffffffffffffffffffff1916908160001a9053507f780000000000000000000000000000000000000000000000000000000000000081600181518110612fe157612fe1613854565b60200101907effffffffffffffffffffffffffffffffffffffffffffffffffffffffffffff1916908160001a905350600061301d846002613a0a565b6130289060016139f2565b90505b60018111156130c5577f303132333435363738396162636465660000000000000000000000000000000085600f166010811061306957613069613854565b1a60f81b82828151811061307f5761307f613854565b60200101907effffffffffffffffffffffffffffffffffffffffffffffffffffffffffffff1916908160001a90535060049490941c936130be81613a47565b905061302b565b50831561312e576040517f08c379a000000000000000000000000000000000000000000000000000000000815260206004820181905260248201527f537472696e67733a20686578206c656e67746820696e73756666696369656e74604482015260640161090b565b9392505050565b6000807f7fffffffffffffffffffffffffffffff5d576e7357a4501ddfe92f46681b20a083111561316c575060009050600361321b565b6040805160008082526020820180845289905260ff881692820192909252606081018690526080810185905260019060a0016020604051602081039080840390855afa1580156131c0573d6000803e3d6000fd5b50506040517fffffffffffffffffffffffffffffffffffffffffffffffffffffffffffffffe0015191505073ffffffffffffffffffffffffffffffffffffffff81166132145760006001925092505061321b565b9150600090505b94509492505050565b6060613233848460008561323b565b949350505050565b6060824710156132cd576040517f08c379a000000000000000000000000000000000000000000000000000000000815260206004820152602660248201527f416464726573733a20696e73756666696369656e742062616c616e636520666f60448201527f722063616c6c0000000000000000000000000000000000000000000000000000606482015260840161090b565b6000808673ffffffffffffffffffffffffffffffffffffffff1685876040516132f69190613a7c565b60006040518083038185875af1925050503d8060008114613333576040519150601f19603f3d011682016040523d82523d6000602084013e613338565b606091505b509150915061150787838387606083156133d75782516133d05773ffffffffffffffffffffffffffffffffffffffff85163b6133d0576040517f08c379a000000000000000000000000000000000000000000000000000000000815260206004820152601d60248201527f416464726573733a2063616c6c20746f206e6f6e2d636f6e7472616374000000604482015260640161090b565b5081613233565b61323383838151156133ec5781518083602001fd5b806040517f08c379a000000000000000000000000000000000000000000000000000000000815260040161090b91906139a1565b60006020828403121561343257600080fd5b81357fffffffff000000000000000000000000000000000000000000000000000000008116811461312e57600080fd5b73ffffffffffffffffffffffffffffffffffffffff8116811461091c57600080fd5b803561348f81613462565b919050565b6000602082840312156134a657600080fd5b813561312e81613462565b6000602082840312156134c357600080fd5b5035919050565b600080600080600080600060e0888a0312156134e557600080fd5b87356134f081613462565b965060208801359550604088013561350781613462565b945060608801359350608088013561351e81613462565b9699959850939692959460a0840135945060c09093013592915050565b6000806040838503121561354e57600080fd5b82359150602083013561356081613462565b809150509250929050565b7f4e487b7100000000000000000000000000000000000000000000000000000000600052604160045260246000fd5b6000806000606084860312156135af57600080fd5b83356135ba81613462565b925060208481013567ffffffffffffffff808211156135d857600080fd5b818701915087601f8301126135ec57600080fd5b8135818111156135fe576135fe61356b565b8060051b6040517fffffffffffffffffffffffffffffffffffffffffffffffffffffffffffffffe0603f830116810181811085821117156136415761364161356b565b60405291825284820192508381018501918a83111561365f57600080fd5b938501935b828510156136845761367585613484565b84529385019392850192613664565b979a979950505050604095909501359450505050565b600080600080608085870312156136b057600080fd5b84356136bb81613462565b93506020850135925060408501356136d281613462565b9396929550929360600135925050565b60008060008060008060c087890312156136fb57600080fd5b863561370681613462565b95506020870135945060408701359350606087013561372481613462565b9598949750929560808101359460a0909101359350915050565b600080600080600060a0868803121561375657600080fd5b853561376181613462565b945060208601359350604086013561377881613462565b94979396509394606081013594506080013592915050565b600080604083850312156137a357600080fd5b82356137ae81613462565b946020939093013593505050565b600080604083850312156137cf57600080fd5b82356137da81613462565b9150602083013561356081613462565b6000806000806080858703121561380057600080fd5b843561380b81613462565b966020860135965060408601359560600135945092505050565b7f4e487b7100000000000000000000000000000000000000000000000000000000600052602160045260246000fd5b7f4e487b7100000000000000000000000000000000000000000000000000000000600052603260045260246000fd5b7f4e487b7100000000000000000000000000000000000000000000000000000000600052601160045260246000fd5b600060ff821660ff8114156138c9576138c9613883565b60010192915050565b6000602082840312156138e457600080fd5b8151801515811461312e57600080fd5b60005b8381101561390f5781810151838201526020016138f7565b83811115610f365750506000910152565b7f416363657373436f6e74726f6c3a206163636f756e74200000000000000000008152600083516139588160178501602088016138f4565b7f206973206d697373696e6720726f6c652000000000000000000000000000000060179184019182015283516139958160288401602088016138f4565b01602801949350505050565b60208152600082518060208401526139c08160408501602087016138f4565b601f017fffffffffffffffffffffffffffffffffffffffffffffffffffffffffffffffe0169190910160400192915050565b60008219821115613a0557613a05613883565b500190565b6000817fffffffffffffffffffffffffffffffffffffffffffffffffffffffffffffffff0483118215151615613a4257613a42613883565b500290565b600081613a5657613a56613883565b507fffffffffffffffffffffffffffffffffffffffffffffffffffffffffffffffff0190565b60008251613a8e8184602087016138f4565b919091019291505056fea2646970667358221220fad8ada0e5c78ba82bc95098a505402f0665e2d266d7e2c6c82740f54f31ef2164736f6c634300080a0033",
  "linkReferences": {},
  "deployedLinkReferences": {}
}